:100000000C9434000C9451000C9451000C94510049
:100010000C9451000C9451000C947B070C945100EB
:100020000C9451000C9451000C9451000C9451000C
:100030000C9451000C9401080C9451000C94510044
:100040000C9451000C9451000C9451000C945100EC
:100050000C9451000C9451000C9451000C945100DC
:100060000C9451000C94510011241FBECFEFD8E026
:10007000DEBFCDBF11E0A0E0B1E0E6E5F8E102C0EF
:1000800005900D92A436B107D9F721E0A4E6B1E0BE
:1000900001C01D92A83AB207E1F70E9451070C94E3
:1000A000290C0C9400002F923F924F925F926F9216
:1000B0007F928F929F92AF92BF92CF92DF92EF92F8
:1000C000FF920F931F93CF93DF93CDB7DEB7C75641
:1000D000D0400FB6F894DEBF0FBECDBF0E941F0800
:1000E00020E030E0398F288F3F8B2E8B3D8B2C8B7F
:1000F0003B8B2A8B84E392E19DA38CA388E796E552
:100100009BA38AA339AB28AB3FA72EA73DA72CA75B
:100110003BA72AA73DAB2CAB3BAB2AAB39A328A30B
:100120003F8F2E8F3D8F2C8F3B8F2A8F290182E0AE
:100130008EAB87E391E099A788A785E190E01C0149
:100140009FA38EA3CE0142965C010E9436050E94B9
:100150005C0869017A01CE01C7963C018201420127
:100160009201C50129010E94360598AF81708FABBD
:10017000C30181E00F31110594014206530692013B
:1001800008F0812D81700F5F1F4F2F4F3F4F803040
:1001900041F70E945C0889013A010E941F080E94F1
:1001A000C307C4010FB6A4969FAF8EAFA4970FBE2E
:1001B0000FB6A2969FAF8EAFA2970FBE9E01205A98
:1001C0003F4FC90159010E94D60795018030C9F3FC
:1001D0000FB6A4968EAD9FADA4970FBE0FB62B960B
:1001E0009FAF8EAF2B970FBE0FB6A2968EAD9FAD71
:1001F000A2970FBE0FB629969FAF8EAF29970FBE5D
:10020000F401FEAFEDAFFCAFEBAFFAAFE9AFF8AF83
:10021000EFAB0FB66796FFAFEEAF67970FBE0FB6A7
:100220006596FFAFEEAF65970FBE0FB66396FFAF53
:10023000EEAF63970FBE0FB66196FFAFEEAF61975B
:100240000FBE0FB66B96FFAFEEAF6B970FBE0FB63C
:100250006996FFAFEEAF69970FBE0FB62796FFAF57
:10026000EEAF27970FBE0FB62596FFAFEEAF2597DF
:100270000FBE0FB62396FFAFEEAF23970FBE0FB69C
:100280002196FFAFEEAF21970FBE82E00FB66D96BD
:100290008EAF6D970FBE87E391E00FB62F969FAF9D
:1002A0008EAF2F970FBE0FB62D963FAE2EAE2D9769
:1002B0000FBEDF01A050BF4F8C919091C000907293
:1002C0009030D9F38093C6003196EE31F10589F76D
:1002D00061E070E080E090E04C010E94D703F401FF
:1002E000DF01A25EBE4F8C919091C0009072903061
:1002F000D9F38093C6003196E231F10589F768E0C1
:1003000070E080E090E04C010E94D703C401DC0162
:10031000A05DBE4F2C913091C00030723030D9F3C7
:100320002093C60001968831910589F70C191D09A3
:10033000C3018E099F0902950F70129501271F7046
:100340000127829518278F701827929589279F700B
:1003500089279695879517950795B8010E94D70329
:100360008091C00080728030D9F38AE08093C6000B
:10037000C501FC013696FC87EB8704969C838B8332
:100380008401280138010E945C083E832D83588730
:100390004F830FB6A0961FAF0EAFA0970FBE0FB63C
:1003A0006E961FAF0EAF6E970FBE1E870D8793011F
:1003B00081E0411451042007310700071107188B11
:1003C0000F870007110709F4812D8170803009F42F
:1003D00047C19E01245A3F4F8D859E85280F391FA6
:1003E0003A83298301969E878D87B12C012D0FB604
:1003F0006D961EAD6D970FBE139503951A9510302F
:1004000039F0CE01C7960E94DD068230B9F3BDC136
:100410008DAC9EAC6BAC7CAC89AD9AAD2FA938ADE0
:10042000DE01A05ABF4F412D1D016B857C854D9388
:100430004395A617B707D9F762267326882699260B
:10044000B40166257725C4012BE63AEC4BEE55E85E
:100450000E94FF0B272F22952F70382F32952327CC
:100460003F702327492F429534274F7034274695F4
:1004700037952795512D622773278427952725E3E4
:100480003EEA42EB52EC0E94FF0BFC0141E061149A
:1004900071046F8478888604970409F0412D4170B7
:1004A000403027E33EE909F49F01B9860A874030CE
:1004B00089EB99E719F4E627F727CF01412D498BFE
:1004C000A3018301230166E070E0DB01A65ABE4F61
:1004D000AC90E989E03019F0EA95E98B3DC0F22F44
:1004E000F295F07FE92FE295FE27E07FFE27182F97
:1004F0001295E127107FE127110FEE1FFF1F012D3D
:10050000E227F327082719279F2E96948E2E87948B
:10051000A12DB12DAE27BF27802691263B2F3295E6
:10052000307F2A2F22953227207F3227992D9295CE
:100530002927907F2927882D82959827807F9827C3
:10054000880F991F221F331F2A273B2788259925AB
:1005500043E0498BAC018901649FA02DB12D11248A
:10056000FA01F0706F021124E02DEB0F74021124D8
:10057000402D4E0FE42FFF27FE2FEE27EA2EFF24FB
:10058000EE2AFF2A452F502F012F112DEA1408F4CF
:10059000A0CFFB013197D1014D018E0E9F1E5F014F
:1005A000F401D080F701EF2FFF27EA0FFB1FDF01D7
:1005B000FC917D01D401FC93D701DC92633071057D
:1005C000B50108F082CFDE01A05ABF4FA12CE5E0B3
:1005D000F0E0BA2C71E0E115F10509F4712D6D918F
:1005E000B61631F4AB2CA39431977170703089F743
:1005F000D201AF5FBF4FF301EF4FFF4F3F01B61680
:100600002D0109F060CF8F8598890FB627969FAF8F
:100610008EAF27970FBE0FB625969FAF8EAF25974B
:100620000FBE0FB621965FAE4EAE21970FBE93015F
:100630000FB623963FAF2EAF23970FBEB984B424D5
:100640000A85043009F0D3CEA981BA81BC928D8588
:100650009E85843091050F85188909F41FC0A8CEA6
:100660008F8598898C01AC0181E0083011052F85B8
:1006700038894207530708F4812D8170803009F0D2
:10068000A8CE0F5F1F4F4F4F5F4FCE01C7965A0145
:100690000E94DD06A501823039F377C00E945C0814
:1006A0000FB6A0966EAD7FADA0970FBE0FB66E963B
:1006B0008EAD9FAD6E970FBEE091C000E072E0304E
:1006C000D9F3E5EAE093C6000FB6A8967FAF6EAF08
:1006D000A8970FBE0FB6A6969FAF8EAFA6970FBE78
:1006E00084E090E00FB6A4969FAF8EAFA4970FBEA4
:1006F0000FB6A2961FAF0EAFA2970FBEC801EB8137
:10070000FC818430910569F0DF01A80FB91F6C915D
:100710007091C00070727030D9F36093C60001967A
:10072000F0CF84E090E00FB6A4969FAF8EAFA49771
:100730000FBE0FB6A2961FAF0EAFA2970FBE8D8150
:100740009E81281B390B8F819885480B590B0FB65A
:10075000A8965FAF4EAFA8970FBE0FB6A6963FAF55
:100760002EAFA6970FBEC8018430910509F40BCEB9
:10077000DF01A80FB91F2C913091C00030723030CA
:10078000D9F32093C6000196EFCF80E090E0DC0122
:10079000A85BBE4F2C913091C00030723030D9F33D
:1007A0002093C60001968C30910589F7FFCF2F92D8
:1007B0003F924F925F926F927F928F929F92AF92F1
:1007C000BF92CF92DF92EF92FF920F931F93CF933E
:1007D000DF93CDB7DEB72A970FB6F894DEBF0FBE12
:1007E000CDBF7C018B01CE0101964AE050E04C0167
:1007F000612D0E94F60BE9E0F0E0EA30F1053F01DF
:1008000008F052C0B801C7012AE030E0290140E0F9
:1008100050E01A010E94CD0B69015A01B601C501D1
:100820009201A1010E94FF0BC801861B970B8063F8
:10083000D401A60DB71D8C9381E00A301105E204A6
:10084000F304F30108F4812D817031978030860123
:10085000750109F0D2CF3196D401AE0FBF1F8C9134
:100860009091C00090729030D9F38093C600319679
:10087000EA30F10589F72A960FB6F894DEBF0FBE6D
:10088000CDBFDF91CF911F910F91FF90EF90DF903F
:10089000CF90BF90AF909F908F907F906F905F9020
:1008A0004F903F902F9008950E94790780E090E04C
:1008B000DC01AC5ABE4F2C913091C0003072303008
:1008C000D9F32093C60001968630910589F7FFCFB2
:1008D000FC01A481B581A115B10579F0FC01228547
:1008E000621759F41196FC01B583A48320813181EC
:1008F000A217B307212D38F031C021E030E0FC0110
:10090000358324836287FC01A681B781A115B105D7
:10091000A9F0FC0123856217B9F49C01F901408517
:100920005185FA013196AF01F90151874087228143
:1009300033814217530740F021E010C021E030E03E
:10094000FC01318720876387119622E0A115B20749
:1009500011F4A0E0B0E0FC01B783A683822F0895D4
:10096000AF92BF92CF92DF92EF92FF920F931F93BD
:10097000FC01A289B389208931895A2F5295507F71
:10098000432F42955427407F5427722F7295472753
:10099000707F4727770F441F551F612D4A275B271C
:1009A00062277327B52FB695A42FA795212D312D3A
:1009B00024273527A627B727532F5295507F422F3C
:1009C00042955427407F54271B2F12954127107FB3
:1009D00041270A2F02951027007F1027000F111FB3
:1009E000441F551F0A271B27118B008B42275327B3
:1009F0006A01538B428B7C014496602F0E946804ED
:100A0000823009F02AC0F70111A300A35601B3A256
:100A1000A2A22281338140815181632F712DA12DAA
:100A2000B12DE680F780C480D580FE2CED2CDC2C27
:100A3000C12CC62AD72AD582C482EA2AFB2AF78289
:100A4000E682322F252F542F412D402751275183E5
:100A500040832A253B25338322831F910F91FF90EA
:100A6000EF90DF90CF90BF90AF9008952F923F927C
:100A70004F925F926F927F928F929F92AF92BF92AE
:100A8000CF92DF92EF92FF920F931F93CF93DF935A
:100A9000CDB7DEB761970FB6F894DEBF0FBECDBFFE
:100AA0007C01F701228533854485558566857785E8
:100AB000A085B185E0E0F0E081E0A115B1052E0749
:100AC0003F074E075F076E077F0709F4812D81708E
:100AD000803009F43BC1CE010C969B878A87DC01EC
:100AE0001696A701912D212DBF83AE835D834C8384
:100AF0009B832395822EFA0114A113951A95103029
:100B000049F0C7010E94B004AE81BF81982F923096
:100B1000A9F339C12C813D81BD01F901C680D7807F
:100B2000A480B5808281938120813181412DAA8565
:100B3000BB854D934395A617B707D9F7A226B326D1
:100B4000C826D926B6016A257B25C6012BE63AECD4
:100B50004BEE55E80E94FF0B272F22952F70382F60
:100B6000329523273F702327492F429534274F7012
:100B70003427469537952795512D6227732784276B
:100B8000952725E33EEA42EB52EC0E94FF0BAC01B5
:100B900081E0A114B10420E030E0C206D30609F0E0
:100BA000812DFA82E9828170803027E33EE93901A4
:100BB00009F43A01803089EB99E72C0119F44627B2
:100BC00057272A01412D60E070E09B016B01DB019A
:100BD000B987A8871B0166E070E0DB01A65ABE4F0B
:100BE0009C90C301403011F04A953CC0F82FF2951B
:100BF000F07FE52DE295FE27E07FFE27542D5295EC
:100C0000E527507FE527550FEE1FFF1F412DE827F1
:100C1000F92744255525BF2EB694AE2EA794C12C96
:100C2000D12CCE26DF26A426B5269D2D9295907F29
:100C30008C2D82959827807F98273B2D329583278E
:100C4000307F83272A2D22953227207F3227220FBB
:100C5000331F881F991F8C259D252A253B2543E09E
:100C600029016C01629F502DA12D11248901107062
:100C700061021124B02DBA0F72021124E02DEB0F86
:100C80000E2F1127102F0027A52FBB27A02BB12B2C
:100C9000232F3C2DCD2CD12CA91508F4A3CF3C013A
:100CA000CB0101977C010A851B85C8018E0D9F1D14
:100CB000FC015081AB2FBB27A00FB11F1C911083EB
:100CC0005C9363307105B70108F087CFBE01645FA4
:100CD0007F4F5B01012D65E070E07101902E11E006
:100CE00061151B01710509F4112DD5015D915D019F
:100CF000951641F4092D0395D1011197BD0111708D
:100D0000103061F7A885B985AF5FBF4FB7016F4F4E
:100D10007F4F951609F05CCF80E090E0EC81FD817B
:100D200097878687AF0195878487E980FA80F701E6
:100D3000B187A087738762879B819A27282D2430EB
:100D4000812DAE81BF8109F41FC0D2CE80E090E03A
:100D50008C01AC0181E00830110520E030E0420751
:100D6000530708F4812D8170803009F0B4CE0F5FF5
:100D70001F4F4F4F5F4FC7016A010E94B004A60189
:100D8000982F923039F381E061960FB6F894DEBF68
:100D90000FBECDBFDF91CF911F910F91FF90EF90CC
:100DA000DF90CF90BF90AF909F908F907F906F908B
:100DB0005F904F903F902F900895AF92BF92CF9247
:100DC000DF92EF92FF920F931F93CF93DF93CDB7F4
:100DD000DEB724970FB6F894DEBF0FBECDBF6C010F
:100DE00080E090E09C838B839A8389838E010F5FE0
:100DF0001F4FC8010E94D6078030D9F3EB80FC80DA
:100E000009811A81F60180899189118B008B2289D1
:100E10003389F38AE28A081B190BE20AF30AC60136
:100E20004496602F0E946804823009F029C0F601C0
:100E300011A300A3F3A2E2A2228133814081518158
:100E4000632F712DA12DB12DC680D780A480B580D0
:100E5000DC2CCB2CBA2CA12CA62AB72AB582A482D2
:100E6000CA2ADB2AD782C682322F252F542F412D42
:100E700040275127518340832E253F2533832283EA
:100E800024960FB6F894DEBF0FBECDBFDF91CF9191
:100E90001F910F91FF90EF90DF90CF90BF90AF9098
:100EA000089582E08093C0001092C50080E1809395
:100EB000C40086E08093C20088E08093C1007894EB
:100EC00080E090E02AE146E050E0BC0131E08F375D
:100ED00092076407750708F0312D31708F5F9F4FBF
:100EE0006F4F7F4F0000303089F70E9453000E94FF
:100EF00056040E9477071F920F920FB60F9211248B
:100F00000F931F932F933F934F935F936F937F9311
:100F10008F939F93AF93BF93EF93FF93CF93DF9301
:100F2000CDB7DEB70E945C08622F809165018F5FAC
:100F30008F7020916401281789F0E0916501062FD8
:100F4000132F9A0194E0E99FF0011124EA59FE4F12
:100F5000008311832283338380936501DF91CF91D6
:100F6000FF91EF91BF91AF919F918F917F916F9181
:100F70005F914F913F912F911F910F910F900FBE55
:100F80000F901F901895CF93DF93CDB7DEB79FB723
:100F9000F89484B7877F84BFE0E6F0E088E180833F
:100FA00080E480839FBFDF91CF910895CF93DF933B
:100FB000CDB7DEB7DC019FB7F89420916401809132
:100FC00065012817E1F0E091640184E0E89FF001F9
:100FD0001124EA59FE4F40815181628173814D9302
:100FE0005D936D937C931397809164018F5F8F70F5
:100FF0008093640181E09FBFDF91CF91089580E0ED
:10100000FACF1F920F920FB60F9211248F939F93D6
:10101000CF93DF93CDB7DEB78091A6019091A70162
:1010200001969093A7018093A6010000DF91CF91D4
:101030009F918F910F900FBE0F901F901895CF9397
:10104000DF930F92CDB7DEB78FE590E0FC01808192
:101050008983F89480E890E0FC01108281E890E0B8
:1010600021E0FC01208384E890E0FC0111821082E1
:101070001092A7011092A60186E390E0FC01208166
:1010800086E390E02160FC0120838FE690E0FC0184
:1010900020818FE690E02160FC0120838FE590E0C5
:1010A0002981FC012083898181150CF4789400004A
:1010B0000F90DF91CF9108958F929F92AF92BF9240
:1010C000CF92DF92EF92FF920F931F93CF93DF9314
:1010D000CDB7DEB76D970FB6F894DEBF0FBECDBFAC
:1010E0008FE590E0FC0180818B83F89484E890E0A8
:1010F000FC01808191819D838C838091A6019091D8
:10110000A7019A83898386E390E0FC018081882F80
:1011100090E081709927009749F08C819D8100971C
:101120002CF089819A8101969A8389838FE590E0DA
:101130002B81FC01208389819A818C0120E030E0A1
:1011400040E050E0BA010E831F83288739874A8721
:101150005B876C877D872E813F81488559856A85AD
:101160007B858C859D8500E10E94CA0B2E873F8779
:10117000488B598B6A8B7B8B8C8B9D8B8C819D8153
:101180008C0120E030E040E050E0BA018E84802AFB
:101190009F84912AA888A22AB988B32ACA88C42A17
:1011A000DB88D52AEC88E62AFD88F72A8E8A9F8A72
:1011B000A88EB98ECA8EDB8EEC8EFD8E2E893F896D
:1011C000488D598D6A8D7B8D8C8D9D8D6D960FB65A
:1011D000F894DEBF0FBECDBFDF91CF911F910F916D
:1011E000FF90EF90DF90CF90BF90AF909F908F9047
:1011F00008950F931F93FA019C01E031F10508F463
:101200002DC08F01A90141705070C901840F951F35
:101210002817390738F4DA01F90161931197A115FC
:10122000B105D9F7D801A41BB50B8D01AE7FA80F6E
:10123000B91F8A179B0770F4FB01F070AB01542FA4
:1012400044274E2B5F2BFC015183408302968A1763
:101250009B07C8F3F801E170F07001C0D901CD011E
:101260008E0F9F1FA817B90728F46D933197E115CA
:10127000F105D9F7C9011F910F9108952F923F925F
:101280004F925F926F927F928F929F92AF92BF9296
:10129000CF92DF92EF92FF920F931F93CF93DF9342
:1012A000CDB7DEB722970FB6F894DEBF0FBECDBF25
:1012B000390128011A014C0181E024143504660526
:1012C000770508F0812D8170803021F040E050E0FA
:1012D0009A0153C16115710509F041C0C10196958C
:1012E0008795822993299C013695279536952795D0
:1012F000282B392BA901529542954F7045275F70D5
:101300004527422B532BCA01892F9927842B952BD4
:10131000809590959C013695279525753575821B8E
:10132000930B9C01237333739695879596958795B8
:1013300083739373820F931F9C01329522952F70B4
:1013400023273F702327280F391F2F703F70C901B3
:10135000892F9927820F931F907040963FC0CB0131
:1013600096958795862B972B9C01369527953695D4
:101370002795282B392BA901529542954F70452767
:101380005F704527422B532BCA01892F9927842B45
:10139000952B809590959C013695279525753575EB
:1013A000821B930B9C0123733373969587959695B7
:1013B000879583739373820F931F9C0132952295B7
:1013C0002F7023273F702327280F391F2F703F705E
:1013D000C901892F9927820F931F9070611471049E
:1013E00009F041C092013695279524293529A90194
:1013F0005695479556954795422B532BFA01F295F2
:10140000E295EF70EF27FF70EF27E42BF52B9F019C
:10141000232F33272E2B3F2B20953095A90156954E
:10142000479545755575241B350BA90143735373B7
:10143000369527953695279523733373240F351FDB
:10144000A901529542954F7045275F704527420F7D
:10145000531F4F705F70FA01EF2FFF27E40FF51F46
:10146000F07070963FC0930136952795262937294D
:10147000A9015695479556954795422B532BFA014E
:10148000F295E295EF70EF27FF70EF27E42BF52B35
:101490009F01232F33272E2B3F2B20953095A90119
:1014A0005695479545755575241B350BA901437312
:1014B0005373369527953695279523733373240FE9
:1014C000351FA901529542954F7045275F704527FA
:1014D000420F531F4F705F70FA01EF2FFF27E40F89
:1014E000F51FF070E81BF90B8E2F8F718030920181
:1014F000A30149F09201A301220F331F441F551F7E
:101500008A958030C9F781E0221633066407750793
:1015100008F0812D992781709070E81BF90BAF01BD
:101520004F715070403059F0842FD2017301AA0FCF
:10153000BB1FEE1CFF1C8A958030C9F702C0D20188
:1015400073012A1A3B0A6E097F0920E030E081E02E
:1015500090E0403031F0880F991F221F331F4A95C9
:10156000F8CF41E0241435046605770508F0412DD5
:101570004170403009F425C0AC0161015B01F40108
:10158000D582C48251834083B782A682338322836B
:1015900022960FB6F894DEBF0FBECDBFDF91CF917C
:1015A0001F910F91FF90EF90DF90CF90BF90AF9081
:1015B0009F908F907F906F905F904F903F902F9073
:1015C000089541E05F2D55230AF4412D41704030CC
:1015D00041F0FA83E983FC018901AC0161015B01FF
:1015E00043C0F694E794B795A7953197FA83E983BA
:1015F0004E2F4F7100E010E0E1E0F0E0403031F0BC
:10160000EE0FFF1F001F111F4A95F8CF6101CA1A84
:10161000DB0A5B01AE08BF0851E04B2D442341E0DB
:101620000AF4412D4170403009F46101403009F461
:101630005B01C414D504A604B70408F0512D403052
:10164000B80111F460E070E05170752E4030AF01C8
:1016500011F440E050E0622B732B9B01482B592B77
:10166000872D803009F08BCF2A013901E150F040FD
:101670000040104089819A8181159105E1F0CC0CE0
:10168000DD1CAA1CBB1C96012A1B3B0BB5016E0975
:101690007F092F5F3F4F6F4F7F4F41E0572F5523FB
:1016A0000AF0412D4170403009F45B01403009F4EB
:1016B00069010197E1CFEC21FD21A2014E2B5F2BA7
:1016C0000A211B219301202B312B89819A818F7153
:1016D000803009F454CFB694A794D794C7948A95D0
:1016E000F7CFEF92FF920F931F93D801A072B070C3
:1016F000E0E0F0E07F01E1E0A115B105EE04FF04B8
:1017000009F4E12DE170E03009F021C00115110567
:1017100009F43BC0F801EF71F070EE2EE030F901F2
:10172000DA0159F0EE2D1E2FF901DA01EE0FFF1F3D
:10173000AA1FBB1F1A951030C9F701950F71003011
:10174000A9F056954795379527950A95F8CF0F71CB
:10175000B901CA01003031F0660F771F881F991F49
:101760000A95F8CF20E030E0A9010FC00E2D00301F
:1017700031F0660F771F881F991F0A95F8CF622BEB
:10178000732B842B952B9F01AD011F910F91FF901F
:10179000EF9008950E94710B08950F931F93CF93BC
:1017A000DF93CDB7DEB728970FB6F894DEBF0FBE34
:1017B000CDBFFA01DC01AB01CE010196BD0189016B
:1017C0009F010E943E098F8198856D817E814B81AA
:1017D0005C8129813A8128960FB6F894DEBF0FBE4E
:1017E000CDBFDF91CF911F910F9108950F931F935C
:1017F0008C010E94F908C8011F910F910895DB0127
:101800008F939F930E940F0CBF91AF91A29F800D69
:10181000911DA39F900DB29F900D112408950E94D9
:101820001A0CA59F900DB49F900DA49F800D911D43
:1018300011240895A29FB001B39FC001A39F700D12
:10184000811D1124911DB29F700D811D1124911DC8
:061850000895F894FFCF9B
:1018560051505048494C2061767220696F742D773B
:101866006474204E3D36206372656469743D20734E
:10187600616D706C65735F7065725F627974653DEA
:1018860020636F6D707574655F7469636B735F70E9
:1018960065725F627974653D4845414C54482D46F2
:1018A60041494C0A50414E49430A000000010001DB
:0418B6000404000026
:00000001FF
