:200000000C94D0010C94DB0A0C94B00A0C94850A0C945A0A0C942F0A0C94040A0C94D90954
:200020000C94AE090C9401020C9401020C9401020C9401020C9401020C9401020C940102F4
:200040000C9401020C9401020C9401020C9401020C9401020C9401020C9401020C9464091E
:200060000C9401020C942E090C9404090C9401020C9401020C9401020C9401020C9401022A
:200080000C9401020C9401020C9401020C9401020C9401020C9401020C9401020C94010248
:2000A0000C9401020C9401020C9401020C9401020C9401020C9401020C9401020C94010228
:2000C0000C9401020C9401020C9401020C9401020C9401020C9401020C9401020C94010208
:2000E0000C9401020C94F1030C943B020C94CA060C94A4060C942E070C94BE030C949908BB
:200100000C949D050C94E7030C94D9030C94C5030C94BA030C9499020C9477020C945C067C
:200120000C94D1020C948B020C94E3030C94A4030C94D5030C94B6030C94CB030C94E50688
:200140000C949F030C94A3060C94EB030C94060B0C94C2030C9468020C9444070C94F306E2
:200160000C94F5030C94DD030C941E030C94CF0300407A10F35A00A0724E18090010A5D413
:20018000E80000E87648170000E40B54020000CA9A3B000000E1F50500008096980000004D
:2001A00040420F000000A08601000000102700000000E803000000006400000000000A00F7
:2001C000000000000100000000002C76D888DC674F0823DFC1DFAE59E1B1B796E5E3E453FB
:2001E000C63AE651997696E8E6C28426EB898C9B62ED407C6FFCEFBC9C9F40F2BAA56FA54D
:20020000F490055A2AF75C936B6CF9676DC11BFCE0E40D47FEF520E6B500D0ED902E03002B
:20022000943577050080841E080000204E0A000000C80C333333330F986E12831141EF8DBF
:200240002114893BE65516CFFEE6DB18D1844B381BF77C1D901DA4BBE424203284725E224F
:200260008100C9F124ECA1E53D2700002200250028002B002E003100340002010000050113
:2002800008010B0100000A0B02090C0D0E08070304010000000000000000000000000000EB
:2002A00000000000000000000000000000000000121110000000000000000000000000000B
:2002C0000000000000000000000000002100240027002A002D0030003300010100000401F1
:2002E00007010A015374617274204D515454204578616D706C6500000020002300260029F9
:20030000002C002F0032000001000003010601090105050505070508080808020202020AE8
:200320000A08080404040401010101010101010303030303030303040707070C0C0C0C0C1E
:200340000C0C0C0202020206060606060606060B0B0B0B0B0B0B0B01021020200808102056
:200360004010204080020102010804020101020408102040808040201008040201800402B4
:20038000018040201008040201080402010102040810204080010204081020408000060B3F
:2003A00011241FBECFEFD1E2DEBFCDBF00E00CBF24E0A2E2B3E001C01D92AA33B207E1F7ED
:2003C00013E0A0E0B2E0E4E6F9E200E00BBF02C007900D92A232B107D9F711E0C0EDD1E026
:2003E00000E006C021970109802FFE010E949614CF3CD10780E00807A9F70E947F0B0C94DD
:20040000B0140C940000CF92DF92EF92FF92CF93DF93B0912E04A0E08111AB2F80912F041D
:2004200090E0880F991FAC0149505D4FC0903404D0903504E0903604F090370430E020E075
:20044000FA01C591D491E881B90190E080E0EB23EA130AC02F5F3F4F6C157D058E059F05C8
:2004600078F36FEF7FEFCB01DF91CF91FF90EF90DF90CF900895AF92BF92CF92DF92EF924B
:20048000FF920F931F93CF93DF936C017B018B01040F151FEB015E01AE18BF08C017D10760
:2004A00059F06991D601ED91FC910190F081E02DC6011995892B79F7C501DF91CF911F9129
:2004C0000F91FF90EF90DF90CF90BF90AF900895FC01538D448D252F30E0842F90E0821BA3
:2004E000930B541710F0CF96089501970895FC01918D828D981761F0A28DAE0FBF2FB11DEA
:200500005D968C91928D9F5F9F73928F90E008958FEF9FEF0895FC01918D828D981731F0CB
:20052000828DE80FF11D858D90E008958FEF9FEF0895FC01918D228D892F90E0805C9F4F23
:20054000821B91098F739927089587E693E00E94990221E0892B09F420E0822F0895FC01EB
:20056000A48DA80FB92FB11DA35ABF4F2C91848D90E001968F739927848FA689B7892C93FA
:20058000A089B1898C91837080648C93938D848D981306C00288F389E02D80818F7D808320
:2005A0000895EF92FF920F931F93CF93DF93EC0181E0888F9B8D8C8D98131AC0E889F98946
:2005C000808185FF15C09FB7F894EE89FF896083E889F98980818370806480839FBF81E070
:2005E00090E0DF91CF911F910F91FF90EF900895F62E0B8D10E00F5F1F4F0F731127E02E70
:200600008C8D8E110CC00FB607FCFACFE889F989808185FFF5CFCE010E94AF02F1CFEB8D2F
:20062000EC0FFD2FF11DE35AFF4FF0829FB7F8940B8FEA89FB8980818062CFCFCF93DF93C0
:20064000EC01888D8823B9F0AA89BB89E889F9898C9185FD03C0808186FD0DC00FB607FC5F
:20066000F7CF8C9185FFF2CF808185FFEDCFCE010E94AF02E9CFDF91CF91089580E090E0FA
:20068000892B29F00E94A50281110E94000080E090E0892B49F080E090E0892B29F00E9414
:2006A000000081110E94000080E090E0892B49F080E090E0892B29F00E94000081110E94D6
:2006C000000080E090E0892B49F080E090E0892B29F00E94000081110C9400000895282FF8
:2006E00030E0F901EC57FD4F9491F901E95AFC4F44912F5E3C4FF9012491222309F435C0E1
:20070000992311F191509231F8F4E92FF0E08827E357FC4F8F4F0C949614BE03C2039F031F
:20072000B603BA03A403C503CB03CF03D503D903DD03E303E703A403EB03F103F50380913E
:2007400080008F7780938000E22FF0E0EE0FFF1FE659FD4FA591B4918FB7F894EC916111BD
:2007600048C040954E234C938FBF0895809180008F7DE8CF80918000877FE4CF84B58F7784
:2007800084BDE2CF84B58F7DFBCF8091B0008F778093B000D9CF8091B0008F7DF9CF809180
:2007A00090008F7780939000CFCF809190008F7DF9CF80919000877FF5CF8091A0008F77CB
:2007C0008093A000C1CF8091A0008F7DF9CF8091A000877FF5CF809120018F77809320016A
:2007E000B3CF809120018F7DF9CF80912001877FF5CF4E2BB8CFCF93DF9390E0FC01E95AF1
:20080000FC4F24918F5E9C4FFC0184918823C9F090E0880F991FFC01E653FD4FA591B491CE
:20082000FC01E659FD4FC591D49161110DC09FB7F8948C91209582238C93888128232883BF
:200840009FBFDF91CF910895623051F49FB7F8943C91822F809583238C93E8812E2BEFCF3C
:200860008FB7F894EC912E2B2C938FBFEACF3FB7F8948091240390912503A0912603B0916C
:20088000270326B5A89B05C02F3F19F00196A11DB11D3FBFBA2FA92F982F8827BC01CD01F1
:2008A000620F711D811D911D42E0660F771F881F991F4A95D1F708958F929F92AF92BF9239
:2008C000CF92DF92EF92FF924B015C010E9437046B017C010E9437046C197D098E099F099E
:2008E000683E734081059105A8F321E0821A9108A108B10888EEC80E83E0D81EE11CF11CA1
:2009000081149104A104B10429F7FF90EF90DF90CF90BF90AF909F908F900895CF92DF920C
:20092000EF92FF920F931F93CF93DF93CDB7DEB7C054D1400FB6F894DEBF0FBECDBF2FB712
:20094000F8948091630390916403A0916503B09166032FBF40913004509131046091320499
:20096000709133048C019D01041B150B260B370BB901A801403D57406105710590F480917A
:200980003804C05CDE4F0FB6F894DEBF0FBECDBFDF91CF911F910F91FF90EF90DF90CF908F
:2009A00008958093300490933104A0933204B093330410922B0410922A0410922904109206
:2009C00028041092270462E080912C040E94FB0361E070E080E090E00E945C0461E0809146
:2009E0002C040E94FB0360E080912C040E946F0380912D048551823020F58BE291E101973C
:200A0000F1F762E080912C040E94FB038091390490E08230910538F0880F991F880F991FFF
:200A200005970197F1F7F89480E00E9403026F3F7F4F8F4F9F4F61F410923804789480E020
:200A4000A0CF64E170E080E090E00E945C04D9CF81E00E9403026F3F7F4F8F4F9F4F61F374
:200A60008E010F5F1F4F6E018FEBC81A8EEFD80A780180E00E940302F7016083718382838D
:200A8000938381E00E940302F7016483758386839783F8E0EF0EF11CEC14FD0451F7789407
:200AA00030E020E0F801C080D180E280F3804481558166817781FFEFCF16DF06EF06FF069B
:200AC00031F04F3F8FEF58076807780719F410923804B5CFF90183E0F595E7958A95E1F7D3
:200AE000E95DFB4F8081880FC416D506E606F70610F180832F5F3F4F085F1F4F28323105AB
:200B000089F640912B042091270480912804280F3327331F80912904280F311D80912A0458
:200B2000820F932F911D99274817190681F681E08093380426CF8160DCCF08950F931F93DD
:200B4000CF93DF93EC01062F142F60E088890E946F033C852D8580912A03882381F09FB7D4
:200B6000F89480912A03813081F58DB3809322034DB380912903809584238DBB9FBF3CBD74
:200B80002DBD0EBD00000DB407FEFDCF8EB51EBD00000DB407FEFDCF1EB580912A038823A2
:200BA00051F09FB7F89420912A0380912203213079F48DBB9FBF61E088890E946F03812F84
:200BC000DF91CF911F910F91089590932203D7CF8FBFF1CF40E00C949E051092220410928F
:200BE00021046DE185E094E00E94EA05482F4E7F6DE985E094E00C949E05CF92DF92EF920F
:200C0000FF92CF93DF936DE185E094E00E94EA0590E034E0959587953A95E1F78A309105F6
:200C20000CF042C0FC01EE0FFF1FE80FF91FEC5BFD4FC080D180E2800E2C000CFF086EE16D
:200C400085E094E00E94EA05D82F66E285E094E00E94EA05C82FD295DF7021E030E040E093
:200C600050E004C0220F331F441F551FDA95D2F7C701B6010E94771468EE73E080E090E0C9
:200C80000E947714213131054105510594F04C2F486066EA85E094E0DF91CF91FF90EF9055
:200CA000DF90CF900C949E05CC24CA94DC2C7601C6CF4C2F477FEDCFCF93DF9362E185E048
:200CC00094E00E94EA05C82F482F62E985E094E00E949E05C5FD34C0C6FF27C01092200410
:200CE00010921F04809121049091220462E2892B09F463E185E094E00E94EA05C82FD0E068
:200D000060E185E094E00E94EA05482F6DE885E094E00E949E05E0912304F0912404309736
:200D200079F0CE01DF91CF911994C3FF09C0E0912504F0912604309719F0DF91CF911994E1
:200D4000DF91CF91089508950F931F93CF93DF93EC01E881F9810084F185E02D1995892B28
:200D6000B1F06DE0CE010E94EA05082F60E0CE010E94EA05182F402F6DE8CE010E949E052F
:200D8000812F90E0DF91CF911F910F9108958FEF9FEFF8CFCF93DF93EC01E881F98100847B
:200DA000F185E02D1995892B69F08A8D9B8D01969B8F8A8F60E0CE010E94EA0590E0DF915C
:200DC000CF9108958FEF9FEFFACFCF93DF93EC0163E10E94EA0590E02A8D3B8D821B930B81
:200DE000DF91CF910895AF92BF92CF92DF92FF920F931F93CF93DF936C015B01EA0162E271
:200E00000E94EA05F82E90E09C012C0F3D1F2F3F310529F020F0CFEFD0E0C81BD90B8501EF
:200E2000AC0EBD1E0A151B0541F0F80141918F0160E8C6010E949E05F5CF4C2F4F0D62EA17
:200E4000C6010E949E05CE01DF91CF911F910F91FF90DF90CF90BF90AF900895CF93DF933B
:200E60001F92CDB7DEB76983DC01ED91FC910280F381E02D41E050E0BE016F5F7F4F199577
:200E80000F90DF91CF91089590E080E0089540E060EC85E094E00E949E050E94ED0545E88E
:200EA00061E885E094E00C949E05FB0101900020E9F73197AF01461B570BDC01ED91FC911D
:200EC0000280F381E02D19948F929F92AF92BF920F931F93CF93DF93CDB7DEB7A1970FB640
:200EE000F894DEBF0FBECDBF19A2423008F44AE08E010F5D1F4F842E912CB12CA12CA501F5
:200F000094010E945514E62FB901CA01EA3004F5E05DD801EE938D01232B242B252B79F702
:200F200090E080E0109729F0BD0187E693E00E945507A1960FB6F894DEBF0FBECDBFDF9197
:200F4000CF911F910F91BF90AF909F908F900895E95CDFCFCF93DF93BC0187E693E00E9462
:200F60005507EC0166E872E087E693E00E9455078C0F9D1FDF91CF9108954F925F926F9213
:200F80007F928F929F92AF92BF92CF92DF92EF92FF920F931F93CF936B017C01742EAC018A
:200FA0009B010E94501469E872E0811126C046015701E894B7F82FEF3FEF4FE75FE7C5011C
:200FC000B4010E94501481110CC02FEF3FEF4FE75FE7C501B4010E9419126DE872E0181613
:200FE00064F02FEF3FEF4FE75FE4C701B6010E944B141816ACF461E972E087E693E0CF91AE
:201000001F910F91FF90EF90DF90CF90BF90AF909F908F907F906F905F904F900C945507F0
:201020002FEF3FEF4FE75FECC701B6010E94191287FDE1CF20E030E0A901C701B6010E9488
:20104000191210E000E087FF0AC06DE287E693E00E94D1028C01F7FAF094F7F8F094C0E08C
:2010600060E070E080E09FE37C1641F020E030E040E251E40E94AA13CF5FF6CFA701960143
:201080000E943E132B013C010E941C144B015C014AE00E9464077C01E00EF11ECC23C1F127
:2010A000C501B4010E941E129B01AC01C301B2010E943D134B015C016EE287E693E00E94B6
:2010C000D102E80EF91EC15018F120E030E040E251E4C501B4010E947F122B013C010E94F6
:2010E0001C144B01B12CA12C4AE0C501B4010E946407E80EF91EC501B4010E941E129B0122
:20110000AC01C301B2010E943D134B015C01DBCFC701CF911F910F91FF90EF90DF90CF9012
:20112000BF90AF909F908F907F906F905F904F9008950F931F93CF93DF938C0165E972E005
:2011400087E693E00E945507D0E0C0E0C017D1075CF485E094E00E94CA06682F87E693E0A0
:201160000E94D1022196F2CF68EA72E087E693E0DF91CF911F910F910C94550761E085E03C
:2011800094E00E94EA058370833009F162E185E094E00E94EA0583FF06C048E062E985E0DD
:2011A00094E00E949E0541E861E885E094E00E949E050E94ED0540E06DE885E094E00E9462
:2011C0009E0540E062EA85E094E00E949E0563E373E085E094E00E94550743E861E885E099
:2011E00094E00E949E0562E185E094E00E94EA0583FFF9CF48E062E985E094E00E949E05AE
:201200008BEA92E00C94AA071F920F920FB60F9211240BB60F922F933F934F935F936F93DD
:201220007F938F939F93AF93BF93EF93FF9387E693E00E94AF02FF91EF91BF91AF919F919D
:201240008F917F916F915F914F913F912F910F900BBE0F900FBE0F901F9018951F920F92DD
:201260000FB60F9211240BB60F922F938F939F93EF93FF93E0917703F09178038081E091EE
:201280007D03F0917E0382FD1DC09081809180038F5F8F7320918103821741F0E0918003E8
:2012A000F0E0E959FC4F958F80938003FF91EF919F918F912F910F900BBE0F900FBE0F9084
:2012C0001F9018958081F2CF1F920F920FB60F9211242F933F938F939F93AF93BF93809176
:2012E000630390916403A0916503B09166033091230323E0230F2D3758F50196A11DB11DCD
:20130000209323038093630390936403A0936503B09366038091240390912503A0912603CF
:20132000B09127030196A11DB11D8093240390932503A0932603B0932703BF91AF919F9111
:201340008F913F912F910F900FBE0F901F90189526E8230F0296A11DB11DD2CF1F920F921F
:201360000FB60F9211240BB60F922F933F934F935F936F937F938F939F93AF93BF93EF938A
:20138000FF93E0910E02F0910F021995FF91EF91BF91AF919F918F917F916F915F914F912A
:2013A0003F912F910F900BBE0F900FBE0F901F9018951F920F920FB60F9211240BB60F927F
:2013C0002F933F934F935F936F937F938F939F93AF93BF93EF93FF93E0910C02F0910D0286
:2013E0001995FF91EF91BF91AF919F918F917F916F915F914F913F912F910F900BBE0F90D8
:201400000FBE0F901F9018951F920F920FB60F9211240BB60F922F933F934F935F936F934B
:201420007F938F939F93AF93BF93EF93FF93E0910202F09103021995FF91EF91BF91AF9155
:201440009F918F917F916F915F914F913F912F910F900BBE0F900FBE0F901F9018951F924C
:201460000F920FB60F9211240BB60F922F933F934F935F936F937F938F939F93AF93BF936A
:20148000EF93FF93E0910002F09101021995FF91EF91BF91AF919F918F917F916F915F91A3
:2014A0004F913F912F910F900BBE0F900FBE0F901F9018951F920F920FB60F9211240BB63F
:2014C0000F922F933F934F935F936F937F938F939F93AF93BF93EF93FF93E0910A02F091F5
:2014E0000B021995FF91EF91BF91AF919F918F917F916F915F914F913F912F910F900BBE69
:201500000F900FBE0F901F9018951F920F920FB60F9211240BB60F922F933F934F935F93AD
:201520006F937F938F939F93AF93BF93EF93FF93E0910802F09109021995FF91EF91BF9186
:20154000AF919F918F917F916F915F914F913F912F910F900BBE0F900FBE0F901F901895BC
:201560001F920F920FB60F9211240BB60F922F933F934F935F936F937F938F939F93AF930A
:20158000BF93EF93FF93E0910602F09107021995FF91EF91BF91AF919F918F917F916F9134
:2015A0005F914F913F912F910F900BBE0F900FBE0F901F9018951F920F920FB60F9211240F
:2015C0000BB60F922F933F934F935F936F937F938F939F93AF93BF93EF93FF93E0910402BA
:2015E000F09105021995FF91EF91BF91AF919F918F917F916F915F914F913F912F910F90B6
:201600000BBE0F900FBE0F901F901895E7E6F3E01382128288EE93E0A0E0B0E084839583B9
:20162000A683B78386E692E09183808385EC90E09587848784EC90E09787868780EC90E063
:20164000918B808B81EC90E0938B828B82EC90E0958B848B86EC90E0978B868B118E128EFA
:20166000138E148EE5E0F4E01382128288E792E09183808380E5848781E0858784E094E0B8
:20168000978786878AE090E0918B808B89E090E0938B828B82E090E0958B848B168A178AD8
:2016A000108E118E138E128E158E148E178E168E11A210A21482158216821782A7E2B4E03E
:2016C00088E015968C9315978BE016968C931697EFE5F3E0E4911796EC931797E9E1F3E0B6
:2016E000E4911896EC93189740E85EE360E070E01D964D935D936D937C9350970895CF9328
:20170000DF93CDB7DEB7E2970FB6F894DEBF0FBECDBF789484B5826084BD84B5816084BDBB
:2017200085B5826085BD85B5816085BD80916E00816080936E001092810080918100826076
:201740008093810080918100816080938100809180008160809380008091B1008460809330
:20176000B1008091B00081608093B000809191008260809391008091910081608093910004
:20178000809190008160809390008091A10082608093A1008091A10081608093A100809184
:2017A000A00081608093A00080912101826080932101809121018160809321018091200130
:2017C00081608093200180917A00846080937A0080917A00826080937A0080917A00816092
:2017E00080937A0080917A00806880937A001092C100E0917703F091780382E08083E0913C
:201800007303F09174031082E0917503F09176038FEC808310927F03E0917B03F0917C0354
:2018200086E08083E0917903F0917A03808180618083E0917903F0917A0380818860808398
:20184000E0917903F0917A03808180688083E0917903F0917A0380818F7D808304EE12E0D2
:20186000F8016491662341F087E693E00E94D1020F5F1F4F892BA1F766E872E087E693E0C3
:201880000E94550761E0809115040E94FB0361E0809115040E946F03809117049091180457
:2018A0008F3F9807C9F061E00E94FB0360E0809117040E946F036AE070E080E090E00E9495
:2018C0005C0461E0809117040E946F036AE070E080E090E00E945C041FB7F894809128031D
:2018E000811127C0E6E4F3E08491ECE8F3E09491E82FF0E0EE0FFF1FE653FD4FA591B491EF
:20190000EC91E92321F461E085E30E946F0361E085E30E94FB038CB580618CBD8CB5806493
:201920008CBD61E084E30E94FB0361E083E30E94FB03809128038F5F809328031FBF62E443
:2019400085E094E00E94EA05823129F087EB92E00E94AA07FFCF40E861E885E094E00E9460
:201960009E0580EC9AECA9E8B6E380931B0490931C04A0931D04B0931E0444EE66E885E095
:2019800094E00E949E0540EC67E885E094E00E949E0540E068E885E094E00E949E0540E047
:2019A0006EE885E094E00E949E0540E06FE885E094E00E949E056CE085E094E00E94EA0568
:2019C000482F43606CE885E094E00E949E0544E066EA85E094E00E949E0544E86DEC85E0FF
:2019E00094E00E949E054BE26BE885E094E00E949E054FE869E885E094E00E949E0541E8C1
:201A000061E885E094E00E949E0543EC61EB85E094E00E949E054AE067EB85E094E00E94CF
:201A20009E056EE185E094E00E94EA058F70482F40696EE985E094E00E949E050E94FD0512
:201A40006DE185E094E00E94EA058F70482F40676DE985E094E00E949E050E94FD056DE14B
:201A600085E094E00E94EA05817F482F42606DE985E094E00E949E0544E369EB85E094E01B
:201A80000E949E058DEC92E00E94AA0789E998E0909324048093230460E0809119040E9444
:201AA000FB032091190430911A0480E02230310551F081E02330310531F0C9014297049709
:201AC00090F487E1821B2FB7F894823009F4CAC060F4882399F0813009F4CAC082E080939D
:201AE0002A0380E00CC08FEFEECF843009F4BEC008F4BAC0853091F788E001C080E19091C5
:201B00002903892B8093290380912A03811103C081E080932A032FBF2091190430911A04D7
:201B20002230310509F0A6C08CE596E0909301028093000280916A00836080936A00EC9A3B
:201B40000E94470762E080912C040E94FB032FB7F8948091630390916403A0916503B09127
:201B600066032FBF805D9740A109B1098093300490933104A0933204B093330487E38093F7
:201B80003904A0901202B09013024E0123E0820E911C2FB7F8948091630390916403A0913E
:201BA0006503B09166032FBF40915F035091600360916103709162038C019D01041B150B89
:201BC000260B370B003717412105310528F4452B462B472B09F0A9C180935F0390936003DA
:201BE000A0936103B093620362EE72E087E693E00E94550762EF72E087E693E00E945507A5
:201C0000609110027091110290E080E04AE00E94640789EF92E00E94AA0780911002909125
:201C2000110201969093110280931002BA82A982D401E0E31D92EA95E9F70E948E048823B3
:201C400051F080912D048C3009F4F4C008F055C08B3009F470C0412C512C20EC622E2FE703
:201C6000722E93C081E04BCF82E049CF84E047CF80E245CF2330310569F48CE596E090939C
:201C800003028093020280916A008C6080936A00ED9A56CFC9014297049708F051CF87E1DA
:201CA000821BE82FF0E0EE0FFF1FE050FE4F2CE536E031832083843091F08530B9F0833044
:201CC00039F080916900836080936900E89A38CF809169008C6080936900E99A31CF809103
:201CE0006900806380936900EA9A2ACF80916900806C80936900EB9A23CF8551823008F0C6
:201D0000AACFF09029046F2D70E0762F662766277F7780912A04682B90E080E00E941E1288
:201D20002DEC3CEC4CEC5DE30E947F122B013C01F7FE2BC09FC06091290470E090E080E0D1
:201D40000E941E126B017C0110912A0417FF0AC0AC019B0160E070E080E89FEB0E943D135C
:201D60006B017C011F70612F70E090E080E00E9420122DEC3CEC4CEC5DE30E947F12A701D3
:201D800096010E943E132B013C0199E0C92E93E0D92EFE01319676011F01D7018D917D0195
:201DA0008193BBE3EB16B3E0FB06B9F70BE213E021E040E0C301B2010E94AA0F42E0C30173
:201DC000B2010E94BD0766E872E087E693E00E94550760E173E0C1010E949E14B801C10147
:201DE0000E949E1465E173E0C1010E949E14B10183E393E00E94A9140E94BE08BA82A98227
:201E0000F40120E311922A95E9F70E948E04882351F080912D048B3030F08D3080F1855147
:201E2000823008F485C0412C512C80EC682E8FE7782E43C010912904612F70E090E080E026
:201E40000E941E126B017C0160912A046F7070E090E080E00E9420122DEC3CEC4CEC5DE31C
:201E60000E947F12A70196010E943E132B013C0117FF8BCF77FA709477F8709486CF6091F6
:201E8000280470E090E080E00E9420122DEC3CEC4CEC5DE30E947F122B013C0160912704B1
:201EA00070E090E080E00E9420129B01AC01C301B2010E943E132B013C01F101D6018D912B
:201EC0006D018193EA16FB06C9F707E513E021E040E0C301B2010E94AA0F42E0C301B20154
:201EE0000E94BD0766E872E087E693E00E9455076AE173E0C1010E949E14B801C1010E942D
:201F00009E146FE173E0C1010E949E14B10183E393E00E94A91460ED77E080E090E00E9456
:201F20005C040E94BE080E9447070E943E0331CE609127047091280476276727762790E086
:201F400080E00E941E122DEC3CEC4CEC5DE30E947F12B1CFEF920F931F93CF93DF93E80151
:201F600034E047FD34E1042E000C550B57FF03C0519541955109E32E022F242FAE010E9441
:201F8000C80FCE01DF91CF911F910F91EF9008958F929F92AF92BF92CF92DF92EF92FF9297
:201FA0000F931F93CF93DF9300D000D000D0CDB7DEB76A01F22EB02E102FFBE3AF2EA01657
:201FC00008F41BE31F5F012F27E0AE014F5F5F4F0E944111BC018981982F9970913009F4FE
:201FE0004EC09BE2E1FC04C09E2D9170E0FC49C05E2D5071E82FE87083FF55C084E09111AC
:2020000001C083E0EF2DE81B8F1508F0E0E0D6018E2F20E25523C9F1992329F0D6019C937E
:20202000C60101966C0196012D5F3F4FE2FE33C08EE4D6018C9391E411969C93119712964E
:202040008C93D9018E2F90E281112AC0E20FF32FF11D10828EEF9FEF29960FB6F894DEBF71
:202060000FBECDBFDF91CF911F910F91FF90EF90DF90CF90BF90AF909F908F9008959DE213
:20208000B7CF90E2B5CF2D9381508111FCCFCE0ED11CE0E0C1CF8EE6D6018C9391E6CCCF41
:2020A0009D938150D1CF482F447082FF3DC084E0911101C083E08F1510F4EF2DE81BD6010E
:2020C0008E2F20E2552309F1992329F0D6019C93C60101966C0196012D5F3F4FE2FE1BC0BD
:2020E00089E4D6018C938EE411968C93119786E412968C93D9018E2F90E2882309F4A6CF46
:202100009D938150FACF2D9381508111FCCFCE0ED11CE0E0D9CF89E6D6018C938EE6119656
:202120008C93119786E6E4CF9B0177FF02C030E020E0A1E0B0E0911102C0B0E0A0E0F90156
:202140003196AE0FBF1F8B2C912CBB2009F461C05401EFEFAE1ABE0AAA0DBB1DFA161B062D
:2021600019F014F04F2D4A1B511188C0E3FC59C07601A42FB0E2A1114FC0C40ED11C9923B7
:2021800009F45BC040E0D6011196F60190836D01552309F448C0012F060F9A81582F5071EC
:2021A00084FF03C0913309F4015010160CF047C0093008F008E0EEE2FE2E5B01A01AB108BA
:2021C00085019194819491082F3F320729F4D601FC92F60131966F016217730794F10217BE
:2021E00013077CF5DB01A21BB30BAA24A394B12CAC0EBD1EAA0DBB1D11968C912150310988
:20220000D601119628153905F4F0F60180836D01DBCFB12CA12CA0CFF701B1937F01A15009
:20222000AACF9111B0CFD601942F50E302C05D9391509111FCCFC40ED11C40E0ACCF01E0FC
:20224000BACF80E3DBCF6217730731F4963388F4953311F4552369F0F6018083FD01842F42
:2022600090E2811108C0A40FB11D1C9290E080E0F3CE81E3F1CF91938150F3CF911183CF03
:202280008ACF283008F027E03327DA01990F311D87FD916000966105710539F432602E5F30
:2022A0003D9330E32A95E1F708959F3F30F080387105610509F03C5F3C5F3D93913008F0BD
:2022C0008068911DDF93CF931F930F93FF92EF92192F987F9695E92F96959695E90FFF2718
:2022E000E653FE4F99273327EE24FF24A701E70105900894079428F4360FE71EF81E491FC9
:20230000511D660F771F881F991F0694A1F70590079428F4E70EF81E491F561FC11D770F1B
:20232000881F991F661F0694A1F70590079428F4F80E491F561FC71FD11D880F991F661FB0
:20234000771F0694A1F70590079420F4490F561FC71FD81F990F661F771F881F0694A9F723
:2023600084911095177041F0D695C79557954795F794E7941A95C1F7E0E7F1E068941590B6
:20238000159135916591959105907FE27395E118F10A430B560BC90BD009C0F7E10CF11EB4
:2023A000431F561FC91FD01D7EF4703311F48A95E6CFE894015030F0080F0AF40027021741
:2023C00008F4202F2395022F7A3328F079E37D932A95E9F710C07D932A9589F60694979515
:2023E0006795379517951794E118F10A430B560BC90BD00998F023957E9173957A3308F072
:2024000070E37C932013B8F77E9170617D9330F0839571E37D9370E32A95E1F71124EF904E
:20242000FF900F911F91CF91DF91992787FD909508950E945B1208F481E00895E89409C099
:2024400097FB3EF490958095709561957F4F8F4F9F4F9923A9F0F92F96E9BB279395F69558
:20246000879577956795B795F111F8CFFAF4BB0F11F460FF1BC06F5F7F4F8F4F9F4F16C0EE
:20248000882311F096E911C0772321F09EE8872F762F05C0662371F096E8862F70E060E042
:2024A0002AF09A95660F771F881FDAF7880F9695879597F90895990F0008550FAA0BE0E8B4
:2024C000FEEF16161706E807F907C0F012161306E407F50798F0621B730B840B950B39F420
:2024E0000A2661F0232B242B252B21F408950A2609F4A140A6958FEF811D811D08950E947A
:2025000092120C9403130E94F51238F00E94FC1220F0952311F00C94EC120C94F2121124A0
:202520000C9437130E94141370F3959FC1F3950F50E0551F629FF001729FBB27F00DB11DA5
:20254000639FAA27F00DB11DAA1F649F6627B00DA11D661F829F2227B00DA11D621F739F0C
:20256000B00DA11D621F839FA00D611D221F749F3327A00D611D231F849F600D211D822F78
:20258000762F6A2F11249F5750409AF0F1F088234AF0EE0FFF1FBB1F661F771F881F91505A
:2025A0005040A9F79E3F510580F00C94EC120C9437135F3FE4F3983ED4F38695779567958B
:2025C000B795F795E7959F5FC1F7FE2B880F911D9695879597F9089597F99F6780E870E0C1
:2025E00060E008959FEF80EC089500240A941616170618060906089500240A94121613068F
:20260000140605060895092E0394000C11F4882352F0BB0F40F4BF2B11F460FF04C06F5F4E
:202620007F4F8F4F9F4F089557FD9058440F551F59F05F3F71F04795880F97FB991F61F00A
:202640009F3F79F087950895121613061406551FF2CF4695F1DF08C0161617061806991F58
:20266000F1CF86957105610508940895E894BB2766277727CB0197F908955058BB27AA278D
:202680000E9455130C9403130E94F51238F00E94FC1220F039F49F3F19F426F40C94F21213
:2026A0000EF4E095E7FB0C94EC12E92F0E94141358F3BA17620773078407950720F079F49F
:2026C000A6F50C9436130EF4E0950B2EBA2FA02D0B01B90190010C01CA01A0011124FF27E5
:2026E000591B99F0593F50F4503E68F11A16F040A22F232F342F4427585FF3CF46953795A9
:202700002795A795F0405395C9F77EF41F16BA0B620B730B840BBAF09150A1F0FF0FBB1FFF
:20272000661F771F881FC2F70EC0BA0F621F731F841F48F4879577956795B795F7959E3FBC
:2027400008F0B0CF9395880F08F09927EE0F9795879508950E94BE130C9403130E94FC12D0
:2027600058F00E94F51240F029F45F3F29F00C94EC1251110C9437130C94F2120E9414130D
:2027800068F39923B1F3552391F3951B550BBB27AA2762177307840738F09F5F5F4F220F3C
:2027A000331F441FAA1FA9F335D00E2E3AF0E0E832D091505040E695001CCAF72BD0FE2FD9
:2027C00029D0660F771F881FBB1F261737074807AB07B0E809F0BB0B802DBF01FF27935823
:2027E0005F4F3AF09E3F510578F00C94EC120C9437135F3FE4F3983ED4F3869577956795A9
:20280000B795F7959F5FC9F7880F911D9695879597F90895E1E0660F771F881FBB1F6217A3
:2028200073078407BA0720F0621B730B840BBA0BEE1F88F7E09508950E941C1388F09F5796
:2028400098F0B92F9927B751B0F0E1F0660F771F881F991F1AF0BA95C9F714C0B13091F016
:202860000E943613B1E008950C943613672F782F8827B85F39F0B93FCCF386957795679550
:20288000B395D9F73EF490958095709561957F4F8F4F9F4F08950E945B1208F48FEF08955C
:2028A0000E945B12880B990B0895A1E21A2EAA1BBB1BFD010DC0AA1FBB1FEE1FFF1FA2177D
:2028C000B307E407F50720F0A21BB30BE40BF50B661F771F881F991F1A9469F7609570955B
:2028E000809590959B01AC01BD01CF010895052E97FB1EF400940E948E1457FD07D00E94AE
:20290000551407FC03D04EF40C948E1450954095309521953F4F4F4F5F4F0895909580950E
:20292000709561957F4F8F4F9F4F0895EE0FFF1F881F8BBF0790F691E02D1994FB01DC01A8
:202940000D900020E9F7119701900D920020E1F70895FB01DC0101900D920020E1F70895CF
:20296000F894FFCF9D059D059D059D059D059D059D059D05010000000000000000000000EC
:20298000000000000000000000000000000000000000000000000000000000000000000037
:2029A0000000000000000000781E00A02800F03C00405100127A00E4A20024F40048E801A1
:2029C00090D00320A10700000000D1023B0268021E03990277028B02000000002E07F30662
:2029E0004407A306E506CA06A4060D0A006E616E00696E66006F76660052656365697665DF
:202A000064207061636B6574203A20000A0D005061636B65742053656E7400537461727409
:202A2000696E67204C6F5261206661696C656421004C6F526120696E6974207375636365AF
:202A4000656465642E0023232323232323232323232020202000434F554E543D002020208F
:202A6000202323232323232323232323003C313131313E0074656D3D003D43C2B000687525
:202A80006D3D003D2500FFFFFFFFFFFFFFFFFFFFFFFFFFFFFFFFFFFFFFFFFFFFFFFFFFFF44
:202AA000FFFFFFFFFFFFFFFFFFFFFFFFFFFFFFFFFFFFFFFFFFFFFFFFFFFFFFFFFFFFFFFF36
:202AC000FFFFFFFFFFFFFFFFFFFFFFFFFFFFFFFFFFFFFFFFFFFFFFFFFFFFFFFFFFFFFFFF16
:202AE000FFFFFFFFFFFFFFFFFFFFFFFFFFFFFFFFFFFFFFFFFFFFFFFFFFFFFFFFFFFFFFFFF6
:202B0000781E00A02800F03C00405100127A00E4A20024F40048E80190D00320A107000014
:202B20000000D1023B0268021E03990277028B02000000002E07F3064407A306E506CA067C
:202B4000A4060D0A005265636569766564207061636B6574203A20000A0D005061636B6580
:202B6000742053656E74005374617274696E67204C6F5261206661696C656421004C6F529A
:202B80006120696E6974207375636365656465642E0023232323232323232323232020202C
:202BA0002000434F554E543D00202020202323232323232323232323003C343536373E00DE
:202BC00074656D3D0068756D3D00FFFFFFFFFFFFFFFFFFFFFFFFFFFFFFFFFFFFFFFFFFFF01
:202BE000FFFFFFFFFFFFFFFFFFFFFFFFFFFFFFFFFFFFFFFFFFFFFFFFFFFFFFFFFFFFFFFFF5
:202C00007061636B6574203A20000A0D005061636B65742053656E74005374617274696EB4
:202C200067204C6F5261206661696C656421004C6F526120696E69742073756363656564BB
:202C400065642E0023232323232323232323232020202000434F554E543D00202020202313
:202C6000232323232323232323230074656D3D0068756D3D0000FFFFFFFFFFFFFFFFFFFFF6
:202C8000FFFFFFFFFFFFFFFFFFFFFFFFFFFFFFFFFFFFFFFFFFFFFFFFFFFFFFFFFFFFFFFF54
:202CA000FFFFFFFFFFFFFFFFFFFFFFFFFFFFFFFFFFFFFFFFFFFFFFFFFFFFFFFFFFFFFFFF34
:202CC000FFFFFFFFFFFFFFFFFFFFFFFFFFFFFFFFFFFFFFFFFFFFFFFFFFFFFFFFFFFFFFFF14
:202CE000FFFFFFFFFFFFFFFFFFFFFFFFFFFFFFFFFFFFFFFFFFFFFFFFFFFFFFFFFFFFFFFFF4
:202D000002C001900D9241505040D8F70895FB01DC0101900D920020E1F708950F931F9342
:202D2000CF93DF93CDB7DEB72E970FB6F894DEBF0FBECDBF0E891F8986E08C831A830983BD
:202D40008FEF9FE79E838D83AE01465E5F4F688D798DCE0101960E94BE162F813885020FE8
:202D6000131FF80110822E960FB6F894DEBF0FBECDBFDF91CF911F910F9108952F923F923C
:202D80004F925F926F927F928F929F92AF92BF92CF92DF92EF92FF920F931F93CF93DF935F
:202DA00000D000D000D01F921F92CDB7DEB77C013B018A01FC0117821682838181FFDDC194
:202DC000CE0101965C01F7019381F30193FD859193FF81913F01882309F453C1853239F406
:202DE00093FD859193FF81913F01853229F4B70190E00E94D618E7CF912C212C312CFFE1C0
:202E0000F31538F08B3211F190F4803209F1833229F137FC3CC020ED280F2A3050F536FE7E
:202E200020C08AE0989E200D1124922E06C08D3291F0803371F7689430F8F30193FD859111
:202E400093FF81913F018111DACF21C0689431F8689432F8F2CF689433F8EFCF689434F859
:202E6000ECCFEAE02E9E200D1124222E689435F8E4CF8E3229F436FC04C1689436F8DDCFC9
:202E80008C3619F4689437F8D8CF8836B1F2982F9F7D95549330E0F08336A1F18337C1F11A
:202EA000833509F063C02801F2E04F0E511CF801C080D180692D70E036FC02C06FEF7FEF49
:202EC000C6010E94C0184C01689437F882010AC00C5F1F4FFFE3F98388248394912C6501CF
:202EE000E89437F833FE2DC0522C8114910471F5552009F468CFB70180E290E00E94D61838
:202F00005A94F6CFF801808189830E5F1F4FE4CF2801F2E04F0E511CF801C080D180692D85
:202F200070E036FC02C06FEF7FEFC6010E94CB184C018201D5CFB70180E290E00E94D618A7
:202F40002A942814190409F0B0F7CECFF60137FC859137FE81916F01B70190E00E94D6186E
:202F600051105A94F1E08F1A9108BFCF843619F0893609F077C0F80137FE6BC06081718183
:202F8000828193810C5F1F4FF32DFF763F2E97FF09C090958095709561957F4F8F4F9F4F11
:202FA000689437F82AE030E0A5010E940619C82ECA188C2C432C36FE0CC0E89440F8C914D5
:202FC00040F434FE05C032FC03C0F32DFE7E4F2E892C44FEAAC0FE01EC0DF11D80818033A1
:202FE00009F09CC0242D297E422E842D8870582E43FCAAC040FEA4C09C2C821418F42C0CF8
:20300000922C981844FEA6C0B70180E390E00E94D61842FE09C088E790E041FE02C088E529
:2030200090E0B7010E94D618C91408F49FC0CA94D12C9FEFC91AD90ACA0CDB1CF60182911A
:203040006F01B70190E00E94D618AC14BD04B1F74FCF60817181072E000C880B990B0E5F49
:203060001F4F92CFD32CE894D4F82AE030E08537E1F1232D297FD22E8F36A9F1F0F488359A
:2030800051F1F701868197812B960FB6F894DEBF0FBECDBFDF91CF911F910F91FF90EF90A1
:2030A000DF90CF90BF90AF909F908F907F906F905F904F903F902F900895803749F08837B0
:2030C00001F7D4FE02C06894D2F820E130E00DC06894D4F8F6CF34FE03C0822F8660D82EA1
:2030E00020E132E002C028E030E0F801D7FE0FC060817181828193810C5F1F4FA5010E943B
:203100000619C82ECA183D2CE89437F852CF6081718190E080E00E5F1F4FF0CF42FC02C046
:20312000839463CF8394839460CF842D867809F45CCFF6CFB70180E290E00E94D61883941C
:203140008214C0F3512C5ECF522C5818821408F459CFF8CF842D867809F466CF8BE241FE80
:2031600080E247FC8DE2B70190E05CCFB70180E390E00E94D6189A9457CF8FEF9FEF84CF1A
:20318000FC010590615070400110D8F7809590958E0F9F1F0895FC0161507040019001102A
:2031A000D8F7809590958E0F9F1F08950F931F93CF93DF93182F092FEB018B8181FD09C028
:2031C0001FEF0FEF812F902FDF91CF911F910F91089582FF14C02E813F818C819D81281789
:2031E00039073CF4E881F981CF0101969983888310838E819F8101969F838E83E3CFE88543
:20320000F985812F1995892BA1F3DACFFA01AA27283051F1203181F1E8946F936E7F6E5F80
:203220007F4F8F4F9F4FAF4FB1E03ED0B4E03CD0670F781F891F9A1FA11D680F791F8A1FD3
:20324000911DA11D6A0F711D811D911DA11D20D009F468943F912AE0269F11243019305D5E
:203260003193DEF6CF010895462F4770405D4193B3E00FD0C9F7F6CF462F4F70405D4A3367
:2032800018F0495D31FD4052419302D0A9F7EACFB4E0A6959795879577956795BA95C9F793
:2032A00000976105710508959B01AC010A2E06945795479537952795BA95C9F7620F731F81
:2032C000841F951FA01D0895F894FFCF9D059D059D059D059D059D059D059D0501000000D2
:2032E000260480000000000000000000000000000000000000000000000000000000000024
:2033000000000000000000000000000000000000000000000000781E00A02800F03C0040E3
:203320005100127A00E4A20024F40048E80190D00320A10700000000D1023B0268021E031B
:20334000990277028B02000000002E07F3064407A306E506CA06A4060D0A00526563656946
:20336000766564207061636B6574203A20000A0D005061636B65742053656E7400537461AB
:203380007274696E67204C6F5261206661696C656421004C6F526120696E69742073756328
:2033A0006365656465642E0023232323232323232323232020202000434F554E543D00209E
:2033C0002020202323232323232323232323006E616E00696E66006F76660074656D3D00C4
:2033E00068756D3D0000FFFFFFFFFFFFFFFFFFFFFFFFFFFFFFFFFFFFFFFFFFFFFFFFFFFF60
:20340000FFFFFFFFFFFFFFFFFFFFFFFFFFFFFFFFFFFFFFFFFFFFFFFFFFFFFFFFFFFFFFFFCC
:20342000FFFFFFFFFFFFFFFFFFFFFFFFFFFFFFFFFFFFFFFFFFFFFFFFFFFFFFFFFFFFFFFFAC
:20344000FFFFFFFFFFFFFFFFFFFFFFFFFFFFFFFFFFFFFFFFFFFFFFFFFFFFFFFFFFFFFFFF8C
:20346000FFFFFFFFFFFFFFFFFFFFFFFFFFFFFFFFFFFFFFFFFFFFFFFFFFFFFFFFFFFFFFFF6C
:020000040003F7
:20E000000D9489F10D94B2F10D94B2F10D94B2F10D94B2F10D94B2F10D94B2F10D94B2F109
:20E020000D94B2F10D94B2F10D94B2F10D94B2F10D94B2F10D94B2F10D94B2F10D94B2F1C0
:20E040000D94B2F10D94B2F10D94B2F10D94B2F10D94B2F10D94B2F10D94B2F10D94B2F1A0
:20E060000D94B2F10D94B2F10D94B2F10D94B2F10D94B2F10D94B2F10D94B2F10D94B2F180
:20E080000D94B2F10D94B2F10D94B2F10D94B2F10D94B2F10D94B2F10D94B2F10D94B2F160
:20E0A0000D94B2F10D94B2F10D94B2F10D94B2F10D94B2F10D94B2F10D94B2F10D94B2F140
:20E0C0000D94B2F10D94B2F10D94B2F10D94B2F10D94B2F10D94B2F10D94B2F10D94B2F120
:20E0E0000D94B2F141546D656761323536300041726475696E6F206578706C6F726572205D
:20E1000073746B3530305632206279204D4C5300426F6F746C6F616465723E004875683FDC
:20E1200000436F6D70696C6564206F6E203D20004350552054797065202020203D20005F52
:20E140005F4156525F415243485F5F3D2000415652204C696243205665723D200047434305
:20E160002056657273696F6E203D20004350552049442020202020203D20004C6F772066B2
:20E18000757365202020203D20004869676820667573652020203D200045787420667573A6
:20E1A00065202020203D20004C6F636B20667573652020203D20004D6172202037203230EB
:20E1C000313300312E362E3800342E332E35005623202020414444522020206F7020636FC3
:20E1E00064652020202020696E737472756374696F6E2061646472202020496E7465727265
:20E20000757074006E6F20766563746F7200726A6D702020006A6D70200057686174207091
:20E220006F72743A00506F7274206E6F7420737570706F72746564004D7573742062652083
:20E2400061206C65747465720020005772697474696E672045450052656164696E6720456C
:20E26000450045452065727220636E743D00504F525400303D5A65726F2061646472003F78
:20E280003D43505520737461747300403D454550524F4D207465737400423D426C696E6B76
:20E2A000204C454400453D44756D7020454550524F4D00463D44756D7020464C41534800C2
:20E2C000483D48656C70004C3D4C69737420492F4F20506F72747300513D51756974005269
:20E2E0003D44756D702052414D00563D73686F7720696E7465727275707420566563746FC9
:20E30000727300593D506F727420626C696E6B002A0011241FBECFEFD1E2DEBFCDBF01E0F6
:20E320000CBF12E0A0E0B2E0EEE1FDEF03E00BBF02C007900D92A030B107D9F712E0A0E0E4
:20E34000B2E001C01D92AE30B107E1F70F9460F30D948DFE01E20EBF0FEF0DBF11241FBE9F
:20E360000D9460F30D9400F020E030E040ED57E005C0FA013197F1F72F5F3F4F2817390799
:20E38000C0F308959C01260F311DC901A0E0B0E02F5F3F4FABBFFC018791882361F0809389
:20E3A000C6008091C00086FFFCCF8091C00080648093C000EACF08958DE08093C600809141
:20E3C000C00086FFFCCF8091C00080648093C0008AE08093C6008091C00086FFFCCF809130
:20E3E000C00080648093C00008950F94C2F10F94DCF10895FC019081992359F09093C600AA
:20E400008091C00086FFFCCF8091C00080648093C0003196992379F70895282F982F92957E
:20E420009F70892F805D8A3308F0895F8093C6008091C00086FFFCCF8091C00080648093D9
:20E44000C000822F8F70982F905D9A3308F0995F9093C6008091C00086FFFCCF8091C00000
:20E4600080648093C00008959C01FB01853691051CF46330710594F0C90164E670E00F94BA
:20E480002EFE605D7F4F6093C6008091C00086FFFCCF8091C00080648093C0002B303105D2
:20E4A00014F43297B4F0C90164E670E00F942EFE6AE070E00F942EFE605D7F4F6093C60007
:20E4C0008091C00086FFFCCF8091C00080648093C000C9016AE070E00F942EFEC0968093F7
:20E4E000C6008091C00086FFFCCF8091C00080648093C00008951F93182F8EE692EE60E0E3
:20E500000F94C2F11093C6008091C00086FFFCCF8091C00080648093C0000F94DCF11F9173
:20E5200008952F923F924F925F926F927F928F929F92AF92BF92CF92DF92EF92FF920F935E
:20E540001F93DF93CF93CDB7DEB762970FB6F894DEBF0FBECDBF382E622ECA01DB015C01E2
:20E560006D01772420E2222E2E010894411C511C8BC081E0A81680E0B80681E0C80680E094
:20E58000D80628F0C601AA27BB270F940DF2BB27AD2D9C2D8B2D0F940DF28A2D0F940DF231
:20E5A0002092C6008091C00086FFFCCF8091C00080648093C0009DE29093C6008091C00001
:20E5C00086FFFCCF8091C00080648093C0002092C6008091C00086FFFCCF8091C000806415
:20E5E0008093C00019828601750188249924A1E03A1651F03A1620F0B2E03B1661F409C0D4
:20E600000BBFF701779007C0C7010F9477FE782E02C0F7017080872D0F940DF22092C6006C
:20E620008091C00086FFFCCF8091C00080648093C000872D8052F401EF70F0708F3520F41F
:20E64000E40DF51D708204C0E40DF51D8EE280830894E11CF11C011D111D0894811C911CB3
:20E6600090E18916910409F0C2CF80E190E0A0E0B0E0A80EB91ECA1EDB1E198AC2010F9413
:20E68000FAF10F94DCF16A94662009F072CF62960FB6F894DEBF0FBECDBFCF91DF911F91A2
:20E6A0000F91FF90EF90DF90CF90BF90AF909F908F907F906F905F904F903F902F900895FB
:20E6C0002F923F924F925F926F927F928F929F92AF92BF92CF92DF92EF92FF920F931F93A8
:20E6E000DF93CF93CDB7DEB7CD53D1400FB6F894DEBF0FBECDBF01E20EBF0FEF0DBF94B7F0
:20E70000F894A89514BE8091600088618093600010926000789493FF05C0E0910002F09138
:20E7200001021995279A2F9A8091C00082608093C00080E18093C40088E18093C1000000A3
:20E74000EE24FF24870144E0A42EB12CCC24DD2424C0C5010197F1F70894E11CF11C011D4A
:20E76000111D21E2E2162EE4F20620E0020720E0120718F031E0C32ED12CC801B70127ECA9
:20E780003BE140E050E00F9441FE611571058105910519F485B1805885B98091C00087FD75
:20E7A00003C0C114D104A9F2A6014F5F5F4FC25EDE4F59834883CE51D140C25EDE4F8881D4
:20E7C0009981CE51D140019711F00D9410FEC05DDE4F19821882C053D14060E0C15DDE4F79
:20E7E0001882CF52D14088249924C35DDE4F19821882CD52D140C05EDE4F188219821A8216
:20E800001B82C052D140CE5CDE4F188219821A821B82C253D140EE24FF2487010BBFF701CE
:20E8200007911691C45CDE4F19830883CC53D1400D940BFEC25EDE4F28813981CE51D1406B
:20E840002130310509F52091C600C25EDE4F19821882CE51D14022C02F5F3F4F4F4F5F4FC0
:20E86000213082E138078AE7480780E0580780F0C45CDE4FE881F981CC53D140EF5FFF4FBA
:20E8800019F0EE27FF27099420E030E040E050E08091C00087FFE0CF2091C600C35DDE4F6D
:20E8A00048815981CD52D1404F5F5F4FC35DDE4F59834883CD52D140213209F063C64A3016
:20E8C000510508F05FC60894811C911C53E08516910409F059C600E010E018C081E2809346
:20E8E000C6008091C00086FFFCCF8091C00080648093C0002F5F3F4F2931310579F70F94EA
:20E90000DCF10F5F1F4F0530110519F020E030E0E5CF10920A0210920B0210920C02109287
:20E920000D0210920602109207021092080210920902109202021092030210920402109283
:20E9400005028FEE90EE60E00F94F5F180E191EE60E00F94C2F18091C00087FFFCCF909133
:20E96000C600903608F09F759032B8F09093C6008091C00086FFFCCF8091C00080648093C3
:20E98000C000A0E2A093C6008091C00086FFFCCF8091C00080648093C000983409F4D7C132
:20E9A0009934B8F4923409F459C1933458F4903319F1903308F4E3C59F33A1F1903409F099
:20E9C000DEC5BDC0953409F470C1963409F0D7C598C1923509F42BC2933538F49C3409F4F6
:20E9E000F5C1913509F0CBC518C2963509F445C2993509F0C4C567C483E792EE62E00F941F
:20EA0000F5F11092060210920702109208021092090210920A0210920B0210920C021092B3
:20EA20000D0213C18FE792EE62E00F94F5F18FEE90EE60E00F94F5F181E291EE60E00F94A9
:20EA4000C2F187EB91EE60E00F94F5F180E391EE60E00F94C2F184EE90EE60E00F94F5F118
:20EA60008FE391EE60E00F94C2F186E090E061E070E00F9434F20F94DCF18DE591EE60E03E
:20EA80000F94C2F189EC91EE60E00F94F5F18EE491EE60E00F94C2F183EC91EE60E00F940B
:20EAA000F5F18CE691EE60E00F94C2F18EE10F940DF288E90F940DF281E00F940DF20F941F
:20EAC000DCF18BE791EE60E00F94C2F119E0E0E0F0E010935700E4918E2F0F940DF20F94E8
:20EAE000DCF18AE891EE60E00F94C2F1E3E0F0E010935700E4918E2F0F940DF20F94DCF1F1
:20EB000089E991EE60E00F94C2F1E2E0F0E010935700E4918E2F0F940DF20F94DCF188EA2C
:20EB200091EE60E00F94C2F1E1E0F0E0109357001491812F0F940DF20F94DCF107CF8BE885
:20EB400092EE62E00F94F5F18BE492EE60E00F94F5F10F94DCF100E010E019C0C8016F2D34
:20EB60000F947FFEFF2031F489E492EE60E00F94C2F10BC0F092C6008091C00086FFFCCF7A
:20EB80008091C00080648093C0000F5F1F4FC80181519F41A0E0B0E0ABBFFC01F790BAE2FC
:20EBA000FB1621F0E2E000301E07C1F60F94DCF10F94DCF187E592EE60E00F94F5F10F942D
:20EBC000DCF1CC24DD2400E010E01EC0C8010F9477FEF82E882331F489E492EE60E00F9422
:20EBE000C2F10BC08093C6008091C00086FFFCCF8091C00080648093C000FE1419F008945E
:20EC0000C11CD11C0F5F1F4FC80181519F41A0E0B0E0ABBFFC01E790FAE2EF1621F022E0F1
:20EC20000030120799F60F94DCF10F94DCF182E692EE60E00F94C2F1C60161E070E00F94A3
:20EC400034F20F94DCF10F94DCF11092020210920302109204021092050278CE89E992EED8
:20EC600062E00F94F5F1279A2F9A16C02F9880E090E0E0EDF7E03197F1F701968436910597
:20EC8000C1F72F9A80E090E0E0EDF7E03197F1F7019684369105C1F78091C00087FFE6CF24
:20ECA0008091C00087FFFCCF64C485EA92EE62E00F94F5F14091020250910302609104029E
:20ECC0007091050281E020E10F9491F28091020290910302A0910402B091050280509F4F2C
:20ECE000AF4FBF4F8093020290930302A0930402B093050280509041A040B04008F426CEE5
:20ED0000A4CF83EB92EE62E00F94F5F14091060250910702609108027091090280E020E19C
:20ED20000F9491F28091060290910702A0910802B091090280509F4FAF4FBF4F80930602FE
:20ED400090930702A0930802B0930902FFCD80EC92EE62E00F94F5F183E792EE60E00F94AC
:20ED6000F5F18FE792EE60E00F94F5F18BE892EE60E00F94F5F189E992EE60E00F94F5F177
:20ED800085EA92EE60E00F94F5F183EB92EE60E00F94F5F180EC92EE60E00F94F5F187ECDC
:20EDA00092EE60E00F94F5F188ED92EE60E00F94F5F18FED92EE60E00F94F5F18AEE92EE8F
:20EDC00060E00F94F5F183E093EEBDCD87EC92EE62E00F94F5F181E40F947BF282E40F94C0
:20EDE0007BF283E40F947BF284E40F947BF285E40F947BF286E40F947BF287E40F947BF249
:20EE000088E40F947BF28AE40F947BF28BE40F947BF28CE40F947BF299CD88ED92EE62E05C
:20EE20000F94F5F1772473948824992409C48FED92EE62E00F94F5F140910A0250910B02DF
:20EE400060910C0270910D0282E020E10F9491F280910A0290910B02A0910C02B0910D0240
:20EE600080509F4FAF4FBF4F80930A0290930B02A0930C02B0930D0269CD8AEE92EE62E076
:20EE80000F94F5F184EE90EE60E00F94F5F18FEC91EE60E00F94F5F1662477244301CC5DDB
:20EEA000DE4F19821882C452D140D401C301B695A79597958795CA5DDE4F88839983AA83B9
:20EEC000BB83C652D140CC5DDE4FA881B981C452D1401196CC5DDE4FB983A883C452D14060
:20EEE000CD0162E070E00F9434F2B0E2B093C6008091C00086FFFCCF8091C0008064809365
:20EF0000C000EDE2E093C6008091C00086FFFCCF8091C00080648093C000F0E2F093C60065
:20EF20008091C00086FFFCCF8091C00080648093C000CA5DDE4FE880F9800A811B81C652B4
:20EF4000D140BB27A12F902F8F2D0F940DF2CA5DDE4F8881C652D1400F940DF2B0E2FB2EEE
:20EF6000F092C6008091C00086FFFCCF8091C00080648093C0000DE30093C6008091C00086
:20EF800086FFFCCF8091C00080648093C00010E21093C6008091C00086FFFCCF8091C0004C
:20EFA00080648093C0008BBEF3012791C65DDE4F2883CA52D140A22EBB24CC24DD24089441
:20EFC000611C711C811C911C8BBEF3018791282E3324442455240894611C711C811C911C0A
:20EFE0008BBEF3013791C55DDE4F3883CB52D1400894611C711C811C911C8BBEF3014791CF
:20F00000C45DDE4F4883CC52D140ADEFEA2EAFEFFA2EAFEF0A2FAFEF1A2F6E0C7F1C801EBD
:20F02000911E142D032DF22CEE24EA0CFB1C0C1D1D1D0F940DF220E22093C6008091C00022
:20F0400086FFFCCF8091C00080648093C000C65DDE4F8881CA52D1400F940DF230E23093DB
:20F06000C6008091C00086FFFCCF8091C00080648093C000C45DDE4F8881CC52D1400F94F8
:20F080000DF240E24093C6008091C00086FFFCCF8091C00080648093C000C55DDE4F8881B5
:20F0A000CB52D1400F940DF250E25093C6008091C00086FFFCCF8091C00080648093C000FC
:20F0C0008FEFE8168FEFF80680E0080780E0180731F484E092EE60E00F94C2F1DFC0D80133
:20F0E000C7018070907CA070B0708050904CA040B040D1F52FEF3FE340E050E0E222F32231
:20F1000004231523CA5DDE4FA880B980CA80DB80C652D140AE0CBF1CC01ED11EAA0CBB1C1E
:20F12000CC1CDD1C8EE092EE60E00F94C2F1BB27A12F902F8F2D0F940DF28E2D0F940DF23E
:20F1400030E23093C6008091C00086FFFCCF8091C00080648093C0004EE34093C600809190
:20F16000C00086FFFCCF87C08EE09EEFA0E0B0E0E822F9220A231B239CE0E91694E9F906A6
:20F1800090E0090790E0190709F088C0C45DDE4FA881CC52D140EA2EFF2400E010E0102F2E
:20F1A0000F2DFE2CEE24C55DDE4FB881CB52D140EB0EF11C011D111DD601C5018170907041
:20F1C000A070B070DC0199278827E80EF91E0A1F1B1F20EF30E040E050E0A222B322C42255
:20F1E000D52241E1AA0CBB1CCC1CDD1C4A95D1F7EA0CFB1C0C1D1D1D81E090E0A0E0B0E090
:20F20000282239224A225B2235E1220C331C441C551C3A95D1F7E20CF31C041D151D5701BD
:20F220006801AA0CBB1CCC1CDD1C85E192EE60E00F94C2F1C801AA27BB270F940DF2BB277B
:20F24000A12F902F8F2D0F940DF28E2D0F940DF290E29093C6008091C00086FFFCCF8091D7
:20F26000C00080648093C000AEE3A093C6008091C00086FFFCCF8091C00080648093C000E4
:20F28000C601AA27BB270F940DF2BB27AD2D9C2D8B2D0F940DF28A2D0F940DF20F94DCF1AA
:20F2A000CC5DDE4FE881F981C452D140F99709F44DCBF4E0EF2EF12C012D112D6E0C7F1CBA
:20F2C000801E911EF2CD83E093EE62E00F94F5F18AE192EE60E00F94C2F18091C00087FF9B
:20F2E000FCCF1091C6001F751093C6008091C00086FFFCCF8091C00080648093C0000F9493
:20F30000DCF1812F81548A3108F036C1163409F495C0173490F4133409F44EC0143430F4C8
:20F320001134F1F0123409F01DC130C0143409F459C0153409F016C16BC01A3409F4C4C029
:20F340001B3438F4173409F48FC0183409F00AC1A1C01B3409F4D2C01C3409F003C1E8C097
:20F360008FEF81B90DC082B1809582B980E090E0E0EDF7E03197F1F70196883C9105C1F7B8
:20F380008091C00087FFEFCF12B8EFC08FEF84B90DC085B1809585B980E090E0E0EDF7E05A
:20F3A0003197F1F70196883C9105C1F78091C00087FFEFCF15B8D9C08FEF87B90DC088B1B5
:20F3C000809588B980E090E0E0EDF7E03197F1F70196883C9105C1F78091C00087FFEFCFF5
:20F3E00018B8C3C08FEF8AB90DC08BB180958BB980E090E0E0EDF7E03197F1F70196883C18
:20F400009105C1F78091C00087FFEFCF1BB8ADC08FEF8DB90DC08EB180958EB980E090E04D
:20F42000E0EDF7E03197F1F70196883C9105C1F78091C00087FFEFCF1EB897C08FEF80BBD4
:20F440000DC081B3809581BB80E090E0E0EDF7E03197F1F70196883C9105C1F78091C000BC
:20F4600087FFEFCF11BA81C08FEF83BB0DC084B3809584BB80E090E0E0EDF7E03197F1F704
:20F480000196883C9105C1F78091C00087FFEFCF14BA6BC08FEF809301010FC0809102013F
:20F4A00080958093020180E090E0E0EDF7E03197F1F70196883C9105C1F78091C00087FFFD
:20F4C000EDCF1092020151C08FEF809304010FC08091050180958093050180E090E0E0ED73
:20F4E000F7E03197F1F70196883C9105C1F78091C00087FFEDCF1092050137C08FEF809399
:20F5000007010FC08091080180958093080180E090E0E0EDF7E03197F1F70196883C9105B4
:20F52000C1F78091C00087FFEDCF109208011DC08FEF80930A010FC080910B0180958093C8
:20F540000B0180E090E0E0EDF7E03197F1F70196883C9105C1F78091C00087FFEDCF10921D
:20F560000B0103C085E292EEEEC98091C00087FFFCCF8091C600EAC988E392EEE4C98CE16D
:20F5800091EEE1C988249924933011F1943028F4913089F09230B8F408C0953061F19530E8
:20F5A000F0F0963009F048C043C02B3109F042C991E06BE13FC96227C15DDE4F2883CF52DC
:20F5C000D14092E037C9B22FA0E0622793E032C9822F90E0A82BB92B622794E02BC92E3029
:20F5E00009F039C3622795E0C05DDE4F19821882C053D1401FC9E1E0F0E0EC0FFD1FC05DC8
:20F60000DE4F08811981C053D140E00FF11F20830F5F1F4FC05DDE4F19830883C053D14063
:20F6200062270A171B0709F005C9D80196E002C9261709F010C303C0973009F0FBC8772433
:20F640009981933109F412C19431C8F4963009F4D8C0973050F4923009F406C1933009F4CF
:20F660006DC0913009F059C253C0913109F477C0923108F0BBC0903109F04FC2F5C0983100
:20F6800009F487C0993150F4953109F4EFC0953108F4C6C1963109F040C2C2C19A3109F450
:20F6A0006CC09A3108F491C09B3109F45BC09D3109F033C29D81903359F48F81882311F478
:20F6C0009EE11CC0813011F091E018C098E916C0892F807591F0903539F4E0E0F0E089E064
:20F6E0008093570094910AC0983539F4E3E0F0E089E080935700949101C090E01A821B82C2
:20F700008D818C831D829E831F8227E030E009C21A8288E08B8381E48C8386E58D8382E521
:20F720008E8389E48F8383E5888780E589878FE58A8782E38B872BE030E0F3C18A818139BD
:20F7400041F0823941F0803911F48FE005C080E003C082E001C08AE01A828B8344C07724A1
:20F76000739482C08D81882311F48EE12CC0813011F081E028C088E926C01A82E1E0F0E0A8
:20F7800089E08093570084918B831C8224E030E0C8C18B81803589F48C81883039F4E2E046
:20F7A000F0E089E08093570084910DC0E0E0F0E089E080935700849106C0E3E0F0E089E08A
:20F7C0008093570084911A82DFCF8D81836C99E0E1E0F0E0082E90935700E89507B600FC73
:20F7E000FDCF1A821B8223E030E09BC180EC8A83CE5CDE4F188219821A821B82C253D14031
:20F800008EC18A8190E0A0E0B0E0582F4427332722278B8190E0A0E0B0E0DC0199278827A1
:20F82000282B392B4A2B5B2B8D8190E0A0E0B0E0282B392B4A2B5B2B8C8190E0A0E0B0E049
:20F84000BA2FA92F982F8827282B392B4A2B5B2B220F331F441F551FC05EDE4F28833983B3
:20F860004A835B83C052D1401A8259C13A81C95CDE4F3883C753D140CA5CDE4F1882C6530B
:20F88000D1408B81C82EDD24CA5CDE4F48815981C653D140C42AD52A933109F082C0CE5C1E
:20F8A000DE4F88819981AA81BB81C253D1408050904CA340B04030F583E0CE5CDE4FE880A5
:20F8C000F9800A811B81C253D140F70100935B0080935700E89507B600FCFDCFCE5CDE4FB9
:20F8E000088119812A813B81C253D14000501F4F2F4F3F4FCE5CDE4F088319832A833B83A5
:20F90000C253D140C05EDE4F488159816A817B81C052D140DE011B9631E08C9111962C91A7
:20F9200011971296C75CDE4F2883C953D140C85CDE4F1882C853D14090E0C85CDE4FE8810E
:20F94000F981C853D1408E2B9F2B0C01FA0160935B0030935700E89511244E5F5F4F6F4F43
:20F960007F4F0EEFE02E0FEFF02ECE0CDF1CC114D10499F685E0C05EDE4F088119812A8106
:20F980003B81C052D140F80120935B0080935700E89507B600FCFDCF81E180935700E895CC
:20F9A00035C0C05EDE4F88819981AA81BB81C052D140B695A795979587957C018601ABE0FC
:20F9C000AA2EB12CAC0EBD1E0BC0D5016D915D01C7010F947FFE0894E11CF11C01501040B1
:20F9E0000115110591F7A60160E070E0440F551F661F771FC05EDE4FE880F9800A811B81E7
:20FA0000C052D1404E0D5F1D601F711F1A82C05EDE4F488359836A837B83C052D1407FC002
:20FA2000FA80C55CDE4FF882CB53D140C65CDE4F1882CA53D1408B81C82EDD24C65CDE4FEC
:20FA400008811981CA53D140C02AD12A1A828981BE016D5F7F4F843121F59601C05EDE4FC4
:20FA6000E880F9800A811B81C052D1400BBFF70187919691DB018C9311969C936E5F7F4FEE
:20FA8000D801C7010296A11DB11DC05EDE4F88839983AA83BB83C052D14022503040F1F6D8
:20FAA00036C0C05EDE4F288139814A815B81C052D1400894C108D108760100E010E00894B7
:20FAC000C11CD11C0894E11CF11C011D111DE20EF31E041F151F21BDBB27A52F942F832F09
:20FAE00082BD2F5F3F4F4F4F5F4FF89A80B5DB018D93BD012E153F054007510761F7C05E42
:20FB0000DE4F288339834A835B83C052D14096012D5F3F4FFB01108204C080EC8A8322E005
:20FB200030E08BE18093C6008091C00086FFFCCF8091C00080648093C000C15DDE4FF88103
:20FB4000CF52D140F093C6008091C00086FFFCCF8091C00080648093C000432F3093C60086
:20FB60008091C00086FFFCCF8091C00080648093C000922F2093C6008091C00086FFFCCF81
:20FB80008091C00080648093C0008EE08093C6008091C00086FFFCCF8091C00080648093AD
:20FBA000C00065E1C15DDE4FE880CF52D1406E2569276427FE01319610C090819093C6001C
:20FBC0008091C00086FFFCCF31968091C00080648093C0006927215030402115310569F778
:20FBE0006093C6008091C00086FFFCCF8091C00080648093C00085B1805885B9772081F44B
:20FC0000C15DDE4F0881CF52D1400F5FC15DDE4F0883CF52D14090E0A0E0B0E00D941AF439
:20FC200027982F9880E090E020ED37E0F9013197F1F7019684369105C9F700008091C00028
:20FC40008D7F8093C00081E180935700E895EE27FF270994FFCF90E00D941AF497FB092EEE
:20FC600007260AD077FD04D02ED006D000201AF4709561957F4F0895F6F7909581959F4FB7
:20FC80000895A1E21A2EAA1BBB1BFD010DC0AA1FBB1FEE1FFF1FA217B307E407F50720F05E
:20FCA000A21BB30BE40BF50B661F771F881F991F1A9469F760957095809590959B01AC01D5
:20FCC000BD01CF010895AA1BBB1B51E107C0AA1FBB1FA617B70710F0A61BB70B881F991F65
:20FCE0005A95A9F780959095BC01CD010895F999FECF92BD81BDF89A992780B50895262FAE
:20FD0000F999FECF1FBA92BD81BD20BD0FB6F894FA9AF99A0FBE01960895F894FFCFFFFF70
:20FD2000FFFFFFFFFFFFFFFFFFFFFFFFFFFFFFFFFFFFFFFFFFFFFFFFFFFFFFFFFFFFFFFFE3
:20FD4000FFFFFFFFFFFFFFFFFFFFFFFFFFFFFFFFFFFFFFFFFFFFFFFFFFFFFFFFFFFFFFFFC3
:20FD6000FFFFFFFFFFFFFFFFFFFFFFFFFFFFFFFFFFFFFFFFFFFFFFFFFFFFFFFFFFFFFFFFA3
:20FD8000FFFFFFFFFFFFFFFFFFFFFFFFFFFFFFFFFFFFFFFFFFFFFFFFFFFFFFFFFFFFFFFF83
:20FDA000FFFFFFFFFFFFFFFFFFFFFFFFFFFFFFFFFFFFFFFFFFFFFFFFFFFFFFFFFFFFFFFF63
:20FDC000FFFFFFFFFFFFFFFFFFFFFFFFFFFFFFFFFFFFFFFFFFFFFFFFFFFFFFFFFFFFFFFF43
:20FDE000FFFFFFFFFFFFFFFFFFFFFFFFFFFFFFFFFFFFFFFFFFFFFFFFFFFFFFFFFFFFFFFF23
:20FE0000FFFFFFFFFFFFFFFFFFFFFFFFFFFFFFFFFFFFFFFFFFFFFFFFFFFFFFFFFFFFFFFF02
:20FE2000FFFFFFFFFFFFFFFFFFFFFFFFFFFFFFFFFFFFFFFFFFFFFFFFFFFFFFFFFFFFFFFFE2
:20FE4000FFFFFFFFFFFFFFFFFFFFFFFFFFFFFFFFFFFFFFFFFFFFFFFFFFFFFFFFFFFFFFFFC2
:20FE6000FFFFFFFFFFFFFFFFFFFFFFFFFFFFFFFFFFFFFFFFFFFFFFFFFFFFFFFFFFFFFFFFA2
:20FE8000FFFFFFFFFFFFFFFFFFFFFFFFFFFFFFFFFFFFFFFFFFFFFFFFFFFFFFFFFFFFFFFF82
:20FEA000FFFFFFFFFFFFFFFFFFFFFFFFFFFFFFFFFFFFFFFFFFFFFFFFFFFFFFFFFFFFFFFF62
:20FEC000FFFFFFFFFFFFFFFFFFFFFFFFFFFFFFFFFFFFFFFFFFFFFFFFFFFFFFFFFFFFFFFF42
:20FEE000FFFFFFFFFFFFFFFFFFFFFFFFFFFFFFFFFFFFFFFFFFFFFFFFFFFFFFFFFFFFFFFF22
:20FF0000FFFFFFFFFFFFFFFFFFFFFFFFFFFFFFFFFFFFFFFFFFFFFFFFFFFFFFFFFFFFFFFF01
:20FF2000FFFFFFFFFFFFFFFFFFFFFFFFFFFFFFFFFFFFFFFFFFFFFFFFFFFFFFFFFFFFFFFFE1
:20FF4000FFFFFFFFFFFFFFFFFFFFFFFFFFFFFFFFFFFFFFFFFFFFFFFFFFFFFFFFFFFFFFFFC1
:20FF6000FFFFFFFFFFFFFFFFFFFFFFFFFFFFFFFFFFFFFFFFFFFFFFFFFFFFFFFFFFFFFFFFA1
:20FF8000FFFFFFFFFFFFFFFFFFFFFFFFFFFFFFFFFFFFFFFFFFFFFFFFFFFFFFFFFFFFFFFF81
:20FFA000FFFFFFFFFFFFFFFFFFFFFFFFFFFFFFFFFFFFFFFFFFFFFFFFFFFFFFFFFFFFFFFF61
:20FFC000FFFFFFFFFFFFFFFFFFFFFFFFFFFFFFFFFFFFFFFFFFFFFFFFFFFFFFFFFFFFFFFF41
:20FFE000FFFFFFFFFFFFFFFFFFFFFFFFFFFFFFFFFFFFFFFFFFFFFFFFFFFFFFFFFFFFFFFF21
:00000001FF
