:200000000C945C000C946E000C946E000C946E000C946E000C946E000C946E000C946E0082
:200020000C946E000C946E000C946E000C946E000C946E000C946E000C946E000C946E0050
:200040000C9415010C946E000C946E000C946E000C946E000C946E000C946E000C946E0088
:200060000C946E000C946E0000000000240027002A0000000000250028002B000404040467
:200080000404040402020202020203030303030301020408102040800102040810200102F1
:2000A00004081020000000080002010000030407000000000000000011241FBECFEFD8E063
:2000C000DEBFCDBF21E0A0E0B1E001C01D92A930B207E1F70E945F010C94CE010C940000FA
:2000E000E1EBF0E02491EDE9F0E09491E9E8F0E0E491EE2309F43BC0222339F1233091F082
:2001000038F42130A9F0223001F524B52F7D12C0273091F02830A1F02430B9F42091800037
:200120002F7D03C0209180002F77209380000DC024B52F7724BD09C02091B0002F7703C086
:200140002091B0002F7D2093B000F0E0EE0FFF1FEE58FF4FA591B4912FB7F894EC918111B4
:2001600003C090959E2301C09E2B9C932FBF08953FB7F8948091050190910601A091070198
:20018000B091080126B5A89B05C02F3F19F00196A11DB11D3FBFBA2FA92F982F8827820FD2
:2001A000911DA11DB11DBC01CD0142E0660F771F881F991F4A95D1F708958F929F92AF9217
:2001C000BF92CF92DF92EF92FF920E94B8004B015C0188EEC82E83E0D82EE12CF12C0E9446
:2001E000B800DC01CB0188199909AA09BB09883E9340A105B10558F021E0C21AD108E10808
:20020000F10888EE880E83E0981EA11CB11CC114D104E104F10419F7FF90EF90DF90CF90C6
:20022000BF90AF909F908F9008951F920F920FB60F9211242F933F938F939F93AF93BF93DC
:200240008091010190910201A0910301B09104013091000123E0230F2D3720F40196A11D28
:20026000B11D05C026E8230F0296A11DB11D209300018093010190930201A0930301B0931E
:2002800004018091050190910601A0910701B09108010196A11DB11D809305019093060131
:2002A000A0930701B0930801BF91AF919F918F913F912F910F900FBE0F901F9018957894D4
:2002C00084B5826084BD84B5816084BD85B5826085BD85B5816085BD80916E008160809339
:2002E0006E00109281008091810082608093810080918100816080938100809180008160EC
:20030000809380008091B10084608093B1008091B00081608093B00080917A0084608093F9
:200320007A0080917A00826080937A0080917A00816080937A0080917A00806880937A0050
:200340001092C100EDE9F0E02491E9E8F0E08491882399F090E0880F991FFC01E859FF4FAA
:20036000A591B491FC01EE58FF4F859194918FB7F894EC91E22BEC938FBFC0E0D0E081E05C
:200380000E9470000E94DD0080E00E9470000E94DD002097A1F30E940000F1CFF894FFCFD4
:2003A000FFFFFFFFFFFFFFFFFFFFFFFFFFFFFFFFFFFFFFFFFFFFFFFFFFFFFFFFFFFFFFFF5D
:2003C000FFFFFFFFFFFFFFFFFFFFFFFFFFFFFFFFFFFFFFFFFFFFFFFFFFFFFFFFFFFFFFFF3D
:2003E000FFFFFFFFFFFFFFFFFFFFFFFFFFFFFFFFFFFFFFFFFFFFFFFFFFFFFFFFFFFFFFFF1D
:20040000A0918901B0918A0126B5A89B05C02F3F19F00196A11DB11D3FBFBA2FA92F982F52
:200420008827BC01CD01620F711D811D911D42E0660F771F881F991F4A95D1F70895CF9206
:20044000DF92EF92FF920F931F93CF93C82F282F392FF901EC55FF4F849120573F4FF90110
:2004600024912223D9F030E0220F331FF901EA57FF4F45915491F901E458FF4FA591B491E3
:200480002FB7F894FA019081382F3095892F832380838C91E32FE823EC932FBF8C2F0E944D
:2004A000E5018C2F0E94E5018C2F0E94E5018C2F0E94E5018C2F0E94E5010AE010E0C12C83
:2004C000D12C76018C2F0E94E501BC01990F880B990B0E94220620E030E040EA50E40E94EF
:2004E000810620E030EC4FE754E40E94E3079B01AC01C701B6010E9477076B017C0101503D
:20050000110901F720E030E040E251E40E94E307CF911F910F91FF90EF90DF90CF900895AD
:20052000FC0101900020E9F73197AF01481B590BBC0183E991E00C9487008F929F92AF929A
:20054000BF920F931F93CF93DF93CDB7DEB7A1970FB6F894DEBF0FBECDBF19A2423008F461
:200560004AE08E010F5D1F4F842E912CB12CA12CA50194010E948E08E62FB901CA01EA30A8
:20058000F4F4E05DD801EE938D01232B242B252B79F790E080E0109719F0CD010E9490026F
:2005A000A1960FB6F894DEBF0FBECDBFDF91CF911F910F91BF90AF909F908F900895E95CDF
:2005C000E1CFFC0180819181009711F00C9452090895EF92FF920F931F93CF93DF93EC0104
:2005E0007B01198218821B821A821D821C82FB0101900020E9F731978F01061B170BB801F3
:200600006F5F7F4F90E080E00E94DB090097B9F0998388831B830A832C813D81232B11F498
:20062000FC0110821D830C83B70188819981DF91CF911F910F91FF90EF900C94A10A88819F
:200640009981009711F00E945209198218821D821C821B821A82DF91CF911F910F91FF9091
:20066000EF9008958F929F92AF92BF92CF92DF92EF92FF92CF936A017B01FC0144815581B5
:200680006081718183E991E00E9487008AE30E947401A7019601C701B6010E948908882361
:2006A00089F080E491E00E9490028CE491E0CF91FF90EF90DF90CF90BF90AF909F908F90BF
:2006C0000C94900246015701E894B7F82FEF3FEF4FE75FE7C501B4010E94890881110DC049
:2006E0002FEF3FEF4FE75FE7C501B4010E941B0618161CF484E491E0D6CF2FEF3FEF4FE7B6
:200700005FE4C701B6010E94840818161CF488E491E0C9CF2FEF3FEF4FE75FECC701B601EA
:200720000E941B0687FDF3CF20E030E0A901C701B6010E941B0687FF07C08DE20E947401E1
:20074000F7FAF094F7F8F0942CEB37E346E055E3C701B6010E9477076B017C010E9455089B
:200760004B015C010E9420069B01AC01C701B6010E9476076B017C014AE0C501B4010E94F1
:200780009D028EE20E947401C7E0C15009F48DCF20E030E040E251E4C701B6010E94810613
:2007A0004B015C010E9455086B01F12CE12C4AE0C701B6010E949D02C701B6010E942006CA
:2007C0009B01AC01C501B4010E9476076B017C01DCCF1F920F920FB60F9211242F933F9321
:2007E0004F935F936F937F938F939F93AF93BF93EF93FF9383E991E00E940501FF91EF9180
:20080000BF91AF919F918F917F916F915F914F913F912F910F900FBE0F901F9018951F9270
:200820000F920FB60F9211242F938F939F93EF93FF93E091A301F091A4018081E091A901FB
:20084000F091AA0182FD1BC090818091AC018F5F8F732091AD01821741F0E091AC01F0E03C
:20086000ED56FE4F958F8093AC01FF91EF919F918F912F910F900FBE0F901F90189580817C
:20088000F4CF1F920F920FB60F9211242F933F938F939F93AF93BF938091830190918401F1
:2008A000A0918501B09186013091820123E0230F2D3758F50196A11DB11D20938201809323
:2008C000830190938401A0938501B09386018091870190918801A0918901B0918A01019608
:2008E000A11DB11D8093870190938801A0938901B0938A01BF91AF919F918F913F912F912A
:200900000F900FBE0F901F90189526E8230F0296A11DB11DD2CFCF93DF9300D000D000D027
:20092000CDB7DEB7789484B5826084BD84B5816084BD85B5826085BD85B5816085BD80910F
:200940006E00816080936E0010928100809181008260809381008091810081608093810095
:20096000809180008160809380008091B10084608093B1008091B00081608093B000809192
:200980007A00846080937A0080917A00826080937A0080917A00816080937A0080917A00EE
:2009A000806880937A001092C100E091A301F091A40182E08083E0919F01F091A0011082FA
:2009C000E091A101F091A20180E180831092AB01E091A701F091A80186E08083E091A5016B
:2009E000F091A601808180618083E091A501F091A601808188608083E091A501F091A60180
:200A0000808180688083E091A501F091A60180818F7D80838EE090E00E941F0260938F0177
:200A20007093900180939101909392018FE090E00E941F0260938B0170938C0180938D0175
:200A400090938E0148E1E42E41E0F42E8701F801819191918F019927FC01EC55FF4F249120
:200A600080579F4FFC018491882399F090E0880F991FFC01EA57FF4FA591B491FC01E4586C
:200A8000FF4F859194918FB7F894EC91E22BEC938FBF61E0F801329780810E949901F1E093
:200AA00000341F07A1F683E991E00E94C30083359105C9F7F7018081F2E0EF0EF11C60E0E0
:200AC0000E9499010E94FA012B013C0182E3882E912CA12CB12C0E94FA016419750986092B
:200AE0009709683E734081059105A8F321E0821A9108A108B10888EE480E83E0581E611C8C
:200B0000711C81149104A104B10429F70E151F0589F66FE471E0CE0101960E94E90284E5DE
:200B200091E00E9490028AE30E9474014D815E8169817A8183E991E00E9487008CE491E013
:200B40000E949002CE0101960E94E10280908F0190909001A0909101B090920160E671E0F9
:200B6000CE0101960E94E902B501A401CE0101960E943203CE0101960E94E10280908B0163
:200B800090908C01A0908D01B0908E016CE671E0CE0101960E94E902B501A401CE010196C4
:200BA0000E943203CE0101960E94E10288E791E00E9490028CE491E00E9490028CE491E069
:200BC0000E94900200E010E001151105E9F30E94F1008823C9F30E940000F6CFE3E9F1E00B
:200BE0001382128288EE93E0A0E0B0E084839583A683B7838AE091E09183808385EC90E07E
:200C00009587848784EC90E09787868780EC90E0918B808B81EC90E0938B828B82EC90E0B9
:200C2000958B848B86EC90E0978B868B118E128E138E148E08950E945D0608F481E0089552
:200C4000E89409C097FB3EF490958095709561957F4F8F4F9F4F9923A9F0F92F96E9BB27DE
:200C60009395F695879577956795B795F111F8CFFAF4BB0F11F460FF1BC06F5F7F4F8F4F17
:200C80009F4F16C0882311F096E911C0772321F09EE8872F762F05C0662371F096E8862F26
:200CA00070E060E02AF09A95660F771F881FDAF7880F9695879597F90895990F0008550FB9
:200CC000AA0BE0E8FEEF16161706E807F907C0F012161306E407F50798F0621B730B840B88
:200CE000950B39F40A2661F0232B242B252B21F408950A2609F4A140A6958FEF811D811D04
:200D000008950E9494060C9405070E94F70638F00E94FE0620F0952311F00C94EE060C94E4
:200D2000F40611240C9439070E94160770F3959FC1F3950F50E0551F629FF001729FBB276D
:200D4000F00DB11D639FAA27F00DB11DAA1F649F6627B00DA11D661F829F2227B00DA11DEC
:200D6000621F739FB00DA11D621F839FA00D611D221F749F3327A00D611D231F849F600DEC
:200D8000211D822F762F6A2F11249F5750409AF0F1F088234AF0EE0FFF1FBB1F661F771F0B
:200DA000881F91505040A9F79E3F510580F00C94EE060C9439075F3FE4F3983ED4F3869537
:200DC00077956795B795F795E7959F5FC1F7FE2B880F911D9695879597F9089597F99F6789
:200DE00080E870E060E008959FEF80EC089500240A941616170618060906089500240A9430
:200E000012161306140605060895092E0394000C11F4882352F0BB0F40F4BF2B11F460FFB7
:200E200004C06F5F7F4F8F4F9F4F089557FD9058440F551F59F05F3F71F04795880F97FB99
:200E4000991F61F09F3F79F087950895121613061406551FF2CF4695F1DF08C0161617063D
:200E60001806991FF1CF86957105610508940895E894BB2766277727CB0197F908952F9269
:200E80003F924F925F926F927F928F929F92AF92BF92CF92DF92EF92FF920F931F93CF931F
:200EA000DF93CDB7DEB7CA1BDB0B0FB6F894DEBF0FBECDBF09942A88398848885F846E84E0
:200EC0007D848C849B84AA84B984C884DF80EE80FD800C811B81AA81B981CE0FD11D0FB6C3
:200EE000F894DEBF0FBECDBFED0108955058BB27AA270E948E070C9405070E94F70638F0E0
:200F00000E94FE0620F039F49F3F19F426F40C94F4060EF4E095E7FB0C94EE06E92F0E94A8
:200F2000160758F3BA17620773078407950720F079F4A6F50C9438070EF4E0950B2EBA2FDE
:200F4000A02D0B01B90190010C01CA01A0011124FF27591B99F0593F50F4503E68F11A16A9
:200F6000F040A22F232F342F4427585FF3CF469537952795A795F0405395C9F77EF41F16B9
:200F8000BA0B620B730B840BBAF09150A1F0FF0FBB1F661F771F881FC2F70EC0BA0F621F7B
:200FA000731F841F48F4879577956795B795F7959E3F08F0B0CF9395880F08F09927EE0FFC
:200FC0009795879508950E94F7070C9405070E94FE0658F00E94F70640F029F45F3F29F04F
:200FE0000C94EE0651110C9439070C94F4060E94160768F39923B1F3552391F3951B550BFB
:20100000BB27AA2762177307840738F09F5F5F4F220F331F441FAA1FA9F335D00E2E3AF015
:20102000E0E832D091505040E695001CCAF72BD0FE2F29D0660F771F881FBB1F26173707F5
:201040004807AB07B0E809F0BB0B802DBF01FF2793585F4F3AF09E3F510578F00C94EE06B3
:201060000C9439075F3FE4F3983ED4F3869577956795B795F7959F5FC9F7880F911D969555
:20108000879597F90895E1E0660F771F881FBB1F621773078407BA0720F0621B730B840BE1
:2010A000BA0BEE1F88F7E09508950E941E0788F09F5798F0B92F9927B751B0F0E1F0660F7A
:2010C000771F881F991F1AF0BA95C9F714C0B13091F00E943807B1E008950C943807672F48
:2010E000782F8827B85F39F0B93FCCF3869577956795B395D9F73EF4909580957095619501
:201100007F4F8F4F9F4F08950E945D0608F48FEF08950E945D06880B990B0895A1E21A2ED8
:20112000AA1BBB1BFD010DC0AA1FBB1FEE1FFF1FA217B307E407F50720F0A21BB30BE40BA7
:20114000F50B661F771F881F991F1A9469F760957095809590959B01AC01BD01CF0108955F
:20116000EE0FFF1F0590F491E02D09940F931F93CF93DF938230910510F482E090E0E091D9
:201180003202F091330230E020E0B0E0A0E0309799F42115310509F44AC0281B390B2430A3
:2011A0003105D8F58A819B816115710589F1FB0193838283FE0111C040815181028113810E
:2011C00048175907E0F04817590799F4109761F012960C93129713961C933296CF01DF91EC
:2011E000CF911F910F9108950093320210933302F4CF2115310551F04217530738F0A9010E
:20120000DB019A01BD01DF01F801C1CFEF01F9CF9093330280933202CDCFFE01E20FF31F3B
:20122000819391932250310939832883D7CF2091300230913102232B41F4209102013091EE
:201240000301309331022093300220910001309101012115310541F42DB73EB740910401EA
:2012600050910501241B350BE0913002F0913102E217F307A0F42E1B3F0B2817390778F0B0
:20128000AC014E5F5F4F2417350748F04E0F5F1F5093310240933002819391939FCFF0E02B
:2012A000E0E09CCFCF93DF930097E9F0FC01329713821282A0913202B0913302ED0130E0F7
:2012C00020E01097A1F420813181820F931F20913002309131022817390709F061C0F09349
:2012E0003102E0933002DF91CF910895EA01CE17DF07E8F54A815B819E0141155105B1F77C
:20130000E901FB83EA8349915991C40FD51FEC17FD0761F4808191810296840F951FE90135
:2013200099838883828193819B838A83F0E0E0E012968D919C9113970097B9F52D913C9147
:201340001197CD010296820F931F20913002309131022817390739F6309751F510923302D3
:2013600010923202B0933102A0933002BCCFD383C28340815181840F951FC817D90761F4A8
:201380004E5F5F4F88819981480F591F518340838A819B81938382832115310509F0B0CF43
:2013A000F0933302E09332029ECFFD01DC01C0CF13821282D7CFB0E0A0E0E1EEF9E00C94D0
:2013C00041078C01009751F4CB010E94B6088C01C801CDB7DEB7E0E10C945D07FC01E60F0A
:2013E000F71F9C0122503109E217F30708F49DC0D901CD91DC911197C617D70798F0C530BD
:20140000D10530F3CE0104978617970708F3C61BD70B2297C193D1936D937C93CF010E947E
:201420005209D6CF5B01AC1ABD0A4C018C0E9D1EA0913202B0913302512C412CF12CE12C32
:20144000109731F580913002909131028815990509F05CC04616570608F058C080910001FD
:2014600090910101009741F48DB79EB74091040150910501841B950BE817F90708F055C0DC
:20148000F0933102E0933002F90171836083A0CF8D919C91119712966C90129713967C90BC
:2014A0001397A815B90559F56C0142E0C40ED11CCA14DB0420F1AC014A195B09DA011296A6
:2014C000159780F06282738251834083D9016D937C93E114F10471F0D7011396FC93EE93BB
:2014E000129776CF22968C0F9D1FF90191838083F301EFCFF0933302E093320269CF481637
:20150000590608F42C017D01D3019ACFCB010E94B6087C01009749F0AE01B8010E94980A63
:20152000C8010E945209870153CF10E000E050CFFB01DC0102C001900D9241505040D8F791
:201540000895FB01DC0101900D920020E1F70895F894FFCF00003402800000000000270118
:201560008700B4007901E500C300D70000000100020003000400050006000700080009000A
:201580000A000B000C000D001000110012001300140015006E616E00696E66006F766600E9
:2015A0000D0A004E414E4F00546172676574204E616D650041307265666572656E636500C0
:2015C00041317265666572656E636500456E644F665465737400FFFFFFFFFFFFFFFFFFFF88
:2015E000FFFFFFFFFFFFFFFFFFFFFFFFFFFFFFFFFFFFFFFFFFFFFFFFFFFFFFFFFFFFFFFF0B
:20160000FFFFFFFFFFFFFFFFFFFFFFFFFFFFFFFFFFFFFFFFFFFFFFFFFFFFFFFFFFFFFFFFEA
:20162000FFFFFFFFFFFFFFFFFFFFFFFFFFFFFFFFFFFFFFFFFFFFFFFFFFFFFFFFFFFFFFFFCA
:20164000FFFFFFFFFFFFFFFFFFFFFFFFFFFFFFFFFFFFFFFFFFFFFFFFFFFFFFFFFFFFFFFFAA
:207E0000112484B714BE81FFF0D085E08093810082E08093C00088E18093C10086E08093FC
:207E2000C20080E18093C4008EE0C9D0259A86E020E33CEF91E0309385002093840096BBAD
:207E4000B09BFECF1D9AA8958150A9F7CC24DD2488248394B5E0AB2EA1E19A2EF3E0BF2E79
:207E6000A2D0813461F49FD0082FAFD0023811F0013811F484E001C083E08DD089C0823404
:207E800011F484E103C0853419F485E0A6D080C0853579F488D0E82EFF2485D0082F10E0A0
:207EA000102F00270E291F29000F111F8ED068016FC0863521F484E090D080E0DECF84364D
:207EC00009F040C070D06FD0082F6DD080E0C81680E7D80618F4F601B7BEE895C0E0D1E0ED
:207EE00062D089930C17E1F7F0E0CF16F0E7DF0618F0F601B7BEE89568D007B600FCFDCF1A
:207F0000A601A0E0B1E02C9130E011968C91119790E0982F8827822B932B1296FA010C016F
:207F200087BEE89511244E5F5F4FF1E0A038BF0751F7F601A7BEE89507B600FCFDCF97BE85
:207F4000E89526C08437B1F42ED02DD0F82E2BD03CD0F601EF2C8F010F5F1F4F84911BD0B8
:207F6000EA94F801C1F70894C11CD11CFA94CF0CD11C0EC0853739F428D08EE10CD085E9AE
:207F80000AD08FE07ACF813511F488E018D01DD080E101D065CF982F8091C00085FFFCCF0A
:207FA0009093C60008958091C00087FFFCCF8091C00084FD01C0A8958091C6000895E0E68F
:207FC000F0E098E1908380830895EDDF803219F088E0F5DFFFCF84E1DECF1F93182FE3DF47
:207FE0001150E9F7F2DF1F91089580E0E8DFEE27FF270994FFFFFFFFFFFFFFFFFFFF040425
:00000001FF
